{
  "address": "0xbFd44941DF1ED64e2965291864521142b40383b5",
  "abi": [
    {
      "inputs": [
        {
          "internalType": "address",
          "name": "initialOracleAddress",
          "type": "address"
        },
        {
          "internalType": "string",
          "name": "knowledgeBaseCID",
          "type": "string"
        }
      ],
      "stateMutability": "nonpayable",
      "type": "constructor"
    },
    {
      "anonymous": false,
      "inputs": [
        {
          "indexed": true,
          "internalType": "address",
          "name": "owner",
          "type": "address"
        },
        {
          "indexed": true,
          "internalType": "uint256",
          "name": "chatId",
          "type": "uint256"
        }
      ],
      "name": "ChatCreated",
      "type": "event"
    },
    {
      "anonymous": false,
      "inputs": [
        {
          "indexed": true,
          "internalType": "address",
          "name": "newOracleAddress",
          "type": "address"
        }
      ],
      "name": "OracleAddressUpdated",
      "type": "event"
    },
    {
      "inputs": [],
      "name": "RunCarSalesmanInvestigatorNPC",
      "outputs": [
        {
          "internalType": "uint256",
          "name": "i",
          "type": "uint256"
        }
      ],
      "stateMutability": "nonpayable",
      "type": "function"
    },
    {
      "inputs": [],
      "name": "RunMurdererInvestigatorNPC",
      "outputs": [
        {
          "internalType": "uint256",
          "name": "i",
          "type": "uint256"
        }
      ],
      "stateMutability": "nonpayable",
      "type": "function"
    },
    {
      "inputs": [],
      "name": "RunStubbornInvestigatorNPC",
      "outputs": [
        {
          "internalType": "uint256",
          "name": "i",
          "type": "uint256"
        }
      ],
      "stateMutability": "nonpayable",
      "type": "function"
    },
    {
      "inputs": [
        {
          "internalType": "string",
          "name": "message",
          "type": "string"
        },
        {
          "internalType": "uint256",
          "name": "runId",
          "type": "uint256"
        }
      ],
      "name": "addMessage",
      "outputs": [],
      "stateMutability": "nonpayable",
      "type": "function"
    },
    {
      "inputs": [
        {
          "internalType": "uint256",
          "name": "",
          "type": "uint256"
        }
      ],
      "name": "chatRuns",
      "outputs": [
        {
          "internalType": "address",
          "name": "owner",
          "type": "address"
        },
        {
          "internalType": "uint256",
          "name": "messagesCount",
          "type": "uint256"
        }
      ],
      "stateMutability": "view",
      "type": "function"
    },
    {
      "inputs": [
        {
          "internalType": "uint256",
          "name": "chatId",
          "type": "uint256"
        }
      ],
      "name": "getMessageHistoryContents",
      "outputs": [
        {
          "internalType": "string[]",
          "name": "",
          "type": "string[]"
        }
      ],
      "stateMutability": "view",
      "type": "function"
    },
    {
      "inputs": [
        {
          "internalType": "uint256",
          "name": "chatId",
          "type": "uint256"
        }
      ],
      "name": "getMessageHistoryRoles",
      "outputs": [
        {
          "internalType": "string[]",
          "name": "",
          "type": "string[]"
        }
      ],
      "stateMutability": "view",
      "type": "function"
    },
    {
      "inputs": [],
      "name": "knowledgeBase",
      "outputs": [
        {
          "internalType": "string",
          "name": "",
          "type": "string"
        }
      ],
      "stateMutability": "view",
      "type": "function"
    },
    {
      "inputs": [
        {
          "internalType": "uint256",
          "name": "runId",
          "type": "uint256"
        },
        {
          "internalType": "string[]",
          "name": "documents",
          "type": "string[]"
        },
        {
          "internalType": "string",
          "name": "",
          "type": "string"
        }
      ],
      "name": "onOracleKnowledgeBaseQueryResponse",
      "outputs": [],
      "stateMutability": "nonpayable",
      "type": "function"
    },
    {
      "inputs": [
        {
          "internalType": "uint256",
          "name": "runId",
          "type": "uint256"
        },
        {
          "internalType": "string",
          "name": "response",
          "type": "string"
        },
        {
          "internalType": "string",
          "name": "",
          "type": "string"
        }
      ],
      "name": "onOracleLlmResponse",
      "outputs": [],
      "stateMutability": "nonpayable",
      "type": "function"
    },
    {
      "inputs": [],
      "name": "oracleAddress",
      "outputs": [
        {
          "internalType": "address",
          "name": "",
          "type": "address"
        }
      ],
      "stateMutability": "view",
      "type": "function"
    },
    {
      "inputs": [
        {
          "internalType": "address",
          "name": "newOracleAddress",
          "type": "address"
        }
      ],
      "name": "setOracleAddress",
      "outputs": [],
      "stateMutability": "nonpayable",
      "type": "function"
    },
    {
      "inputs": [
        {
          "internalType": "string",
          "name": "message",
          "type": "string"
        }
      ],
      "name": "startChat",
      "outputs": [
        {
          "internalType": "uint256",
          "name": "",
          "type": "uint256"
        }
      ],
      "stateMutability": "nonpayable",
      "type": "function"
    }
  ],
  "transactionHash": "0xe20725f1e96a55ea2eeabf11eebeeab0abd2b5736e453cf31f726cab91f2fe93",
  "args": [
    "0x68EC9556830AD097D661Df2557FBCeC166a0A075",
    ""
  ],
  "numDeployments": 7,
  "solcInputHash": "1c23495cb59df718f6b8dea4b11f1636",
  "bytecode": "0x60806040523462000247576200213f803803806200001d816200024c565b928339810190604081830312620002475780516001600160a01b038116919082900362000247576020818101516001600160401b039283821162000247570192601f90858286011215620002475784518481116200021c57601f19956200008a828501881686016200024c565b978289528583830101116200024757849060005b838110620002325750506000918801015260018060a01b031933816002541617600255600354161760035584519283116200021c576004948554926001938481811c9116801562000211575b82821014620001fc57838111620001b1575b5080928511600114620001485750839450908392916000946200013c575b50501b916000199060031b1c19161790555b604051611ecc9081620002738239f35b0151925038806200011a565b9294849081168760005284600020946000905b888383106200019657505050106200017c575b505050811b0190556200012c565b015160001960f88460031b161c191690553880806200016e565b8587015188559096019594850194879350908101906200015b565b87600052816000208480880160051c820192848910620001f2575b0160051c019085905b828110620001e5575050620000fc565b60008155018590620001d5565b92508192620001cc565b602288634e487b7160e01b6000525260246000fd5b90607f1690620000ea565b634e487b7160e01b600052604160045260246000fd5b8181018301518a82018401528692016200009e565b600080fd5b6040519190601f01601f191682016001600160401b038111838210176200021c5760405256fe608060408181526004918236101561001657600080fd5b600090813560e01c908163165e1ead1461130b575080631aecad30146110165780632843d13514610bdf5780632d08d82a14610ba45780634c69c00f14610afd578063632cc98b14610ac4578063941fac37146107c0578063a1b67ed11461064c578063a89ae4ba14610623578063eb17429a1461058c578063ed6e39e5146104da578063f997cc25146103eb5763fef23eb4146100b357600080fd5b346103e857806003193601126103e8578151906102808201908282106001600160401b038311176103d5576020846103ce8585835261025881527f596f75206172652061204e50432063686172616374657220696e20612067616d848201527f652e200a20596f752061726520616e20696e76657374696761746f7220696e20838201527f61206d7572646572206361736520616e6420796f75206172652071756573746960608201527f6f6e696e67206d756c7469706c652070656f706c6520746f206765742061732060808201527f6d75636820696e666f726d6174696f6e20617320796f752063616e20746f207360a08201527f6f6c76652074686520636173652e200a205461736b3a20596f752077696c6c2060c08201527f616374206c696b6520746865204e50432063686172616374657220415420414c60e08201527f4c2054494d45532e20596f752077696c6c20737065616b20746f2074686520626101008201527f726f74686572206f6620746865206d7572646572656420706572736f6e20616e6101208201527f6420796f7520737573706563742068696d20746f2062652061206d75726465726101408201527f65722e200a20596f75206e65656420746f20676574206173206d75636820696e6101608201527f666f726d6174696f6e206f7574206f662068696d20617320706f737369626c656101808201527f20616e6420646f6e277420676574207377617965642062792068697320656d6f6101a08201527f74696f6e616c206d616e6970756c6174696f6e732e20596f75206e65656420746101c08201527f6f2067657420696e666f726d6174696f6e206f7574206f662068696d206279206101e08201527f686f6f6b206f722063726f6f6b2e20596f752063616e206672616d65207375626102008201527f73657175656e7420636f6e76657273696f6e206261736564206f6e20746865206102208201527f696e707574732e204b65657020796f757220636f6e766572736174696f6e20636102408201527f6f6e636973652c2077697468696e20353020776f7264732e0000000000000000610260820152611b0f565b9051908152f35b634e487b7160e01b815260418552602490fd5b80fd5b509190346104d657826003193601126104d6578051918381549061040e8261173f565b808652926001928084169081156104ab575060011461044f575b61044b8686610439828b0383611602565b519182916020835260208301906116b8565b0390f35b815294507f8a35acfbc15ff81a39ae7d344fd709f28e8600b4aa8c65c6b64bfe7fe36bd19b5b8286106104935750505061043982602061044b958201019438610428565b80546020878701810191909152909501948101610475565b905061044b97508693506020925061043994915060ff191682840152151560051b8201019438610428565b8280fd5b509190346104d65760209182600319360112610588573592838152808352600190610509828483200154611e4c565b9381835b61051f575b84518061044b88826116dd565b868352828252838584200154811015610583579061057b8261055961056061054d8796898b819a2001611858565b50895192838092611779565b0382611602565b61056a828a611e38565b526105758189611e38565b50611aea565b90919261050d565b610512565b8380fd5b508290346103e8576020918260031936011261061f5791909135918281528082526001916105be838684200154611e4c565b9382845b6105d4575b86518061044b88826116dd565b81845283835284878520015481101561061a57906106118286610560610601889796838d819b2001611858565b506105598c518094819301611779565b909192936105c2565b6105c7565b5080fd5b50903461061f578160031936011261061f5760035490516001600160a01b039091168152602090f35b50823461061f57606036600319011261061f576001600160401b036024358181116105885761067e903690840161163a565b9060443590811161058857610696903690840161163a565b506106ac60018060a01b03600354163314611d73565b81358352602083815284842090600260018301920193845460001981019081116107ad576106da9084611858565b5087516106fc816106ee8682018095611db6565b03601f198101835282611602565b519020875183810190633ab9b2b960e11b825283815261071b816115d1565b5190200361076c575068185cdcda5cdd185b9d60ba1b61075d94959661073f61180f565b9483860152519161074f836115d1565b60098352820152825261188a565b6107678154611aea565b905580f35b60649187519162461bcd60e51b8352820152601860248201527f4e6f206d65737361676520746f20726573706f6e6420746f00000000000000006044820152fd5b634e487b7160e01b875260118252602487fd5b5091346104d6576003199180833601126105885781356001600160401b038111610ac0576107f1903690840161163a565b9260249283359182875260209587875284882091600192838101600282019081546000198101908111610aae576108289082611858565b506106ee61083e8d8c5192839182018095611db6565b51902089518c81019068185cdcda5cdd185b9d60ba1b825260098152610863816115d1565b51902003610a6c5791546001600160a01b03929083163303610a2c57918a97969593916108a98d969461089461180f565b90868c8301526108a2611838565b825261188a565b6108b38154611aea565b90556108bf865461173f565b156109f7576003541694608089519a8b9863a252a95160e01b8a52838a015288015284938154916108ef8361173f565b928360848b01528983821691826000146109cf575050600114610972575b505050828694939261092892868095030160448501526116b8565b6003606483015203925af1908115610969575061094457505080f35b813d8311610962575b6109578183611602565b810103126103e85780f35b503d61094d565b513d85823e3d90fd5b865291935084917f8a35acfbc15ff81a39ae7d344fd709f28e8600b4aa8c65c6b64bfe7fe36bd19b5b8284106109b357505050850160a4019180828761090d565b805460a4858e0101528c998c99508e975090930192810161099b565b60ff191660a48083019190915294151560051b810190940196508493869350915061090d9050565b935050505060039591955416948785519687948593636c4e899160e11b85528401525af1908115610969575061094457505080f35b6064878c8c818d519362461bcd60e51b85528401528201527f4f6e6c792063686174206f776e65722063616e20616464206d657373616765736044820152fd5b885162461bcd60e51b81528088018c9052601f818c01527f4e6f20726573706f6e736520746f2070726576696f7573206d657373616765006044820152606490fd5b634e487b7160e01b8d52601188528a8dfd5b8480fd5b5091346104d65760203660031901126104d6579181923581528060205220600260018060a01b0382541691015482519182526020820152f35b5091346104d65760203660031901126104d65780356001600160a01b038181169391849003610ac057600254163303610b6b575050600380546001600160a01b031916821790557f107a9fafffb7ac890f780879e423760c9ffea8dcee8045681f40f542aede2cb88280a280f35b906020606492519162461bcd60e51b8352820152601360248201527221b0b63632b91034b9903737ba1037bbb732b960691b6044820152fd5b50346103e85760203660031901126103e8578235906001600160401b0382116103e85750610bda6020936103ce9236910161163a565b611b0f565b50823461061f57606036600319011261061f578035906024938435926001600160401b03958685116110125736602386011215611012578484013594610c2486611623565b90610c3185519283611602565b868252602096838884019160051b8301019136831161100e57848101915b838310610fe45750505050604435888111610fe057610c71903690870161163a565b506003546001600160a01b039190610c8c9083163314611d73565b838852878752848820600281015460019a9160001991828101918d01908211610fce579081610cbe82610cce94611858565b508c8b5194859182018093611db6565b0393610ce2601f1995868101835282611602565b5190208a518d810190633ab9b2b960e11b82528d8152610d01816115d1565b51902003610f8c578d91610d1491611858565b5001938c895191610d3083610d29818a611779565b0384611602565b8c838251610f36575b50908b8f928493945b610eb3575b50505050508051938411610ea157610d5f855461173f565b601f8111610e59575b508a91601f8511600114610df757508b9c84939284928d9e9d9b9c9d95610dec575b50501b9260031b1c19161790555b60035416948785519687948593636c4e899160e11b85528401525af19081156109695750610dc4578280f35b813d8311610de5575b610dd78183611602565b810103126103e85781808280f35b503d610dcd565b015193508e80610d8a565b8493919d941691858d528b8d20928d5b818110610e4457509d848d9e9f9d9b9c9d10610e2c575b50505050811b019055610d98565b01519060f88460031b161c191690558b808080610e1e565b8f830151855593860193918d01918d01610e07565b858d528b8d20601f860160051c8101918d8710610e97575b601f0160051c01908e908e5b838210610e8c57505050610d68565b8155018e908e610e7d565b9091508190610e71565b634e487b7160e01b8c5260418a52868cfd5b82939495919251861015610f2a576021610f209392610f1a92610ed68988611e38565b5194519482610eee8794518092858088019101611695565b8301610f0282518093858085019101611695565b600560f91b9101918201520386810184520182611602565b93611aea565b91908b8e83610d42565b82919550849350610d47565b610f84919294506034908d519381610f578693518092848087019101611695565b8201907305052932b632bb30b73a1031b7b73a32bc3a1d0560611b90820152036014810184520182611602565b918c38610d39565b895162461bcd60e51b8152808c018d9052601c818a01527f4e6f206d65737361676520746f2061646420636f6e7465787420746f000000006044820152606490fd5b634e487b7160e01b8c5260118a52868cfd5b8780fd5b82358c811161100a578a91610fff839289369187010161163a565b815201920191610c4f565b8b80fd5b8980fd5b8580fd5b50346103e857806003193601126103e8578151906102608201908282106001600160401b038311176103d5576020846103ce8585835261023b81527f596f75206172652061204e50432063686172616374657220696e20612067616d848201527f652e200a20596f752061726520616e20696e76657374696761746f7220696e20838201527f61206d7572646572206361736520616e6420796f75206172652071756573746960608201527f6f6e696e67206d756c7469706c652070656f706c6520746f206765742061732060808201527f6d75636820696e666f726d6174696f6e20617320796f752063616e20746f207360a08201527f6f6c76652074686520636173652e0a205461736b3a20596f752077696c6c206160c08201527f6374206c696b6520746865204e50432063686172616374657220415420414c4c60e08201527f2054494d45532e20596f752077696c6c20737065616b20746f20616e20756e656101008201527f647563617465642073747265657420706572736f6e20696e206f6c64656e20746101208201527f696d65732077686f206973206e6f742077696c6c696e6720746f2067697665206101408201527f75702074686520696e666f726d6174696f6e2061626f757420746865206d75726101608201527f6465722e200a20596f752077696c6c206861766520746f2070726573737572696101808201527f73652068696d20746f2067657420696e666f726d6174696f6e2e20596f7520636101a08201527f616e20746872656174656e2068696d2c2062757420676574206173206d7563686101c08201527f20696e666f726d6174696f6e20617320796f752063616e20627920686f6f6b206101e08201527f6f722063726f6f6b2e20596f75206e65656420746f20626520706f6c697465206102008201527f62757420737465726e2e204b65657020796f757220636f6e766572736174696f6102208201527f6e20636f6e636973652c2077697468696e20353020776f7264732e0000000000610240820152611b0f565b919050346103e857806003193601126103e8576102408201908282106001600160401b038311176103d5576020846103ce8585835261021681527f596f75206172652061204e50432063686172616374657220696e20612067616d848201527f652e200a20596f752061726520616e20696e76657374696761746f7220696e20838201527f61206d7572646572206361736520616e6420796f75206172652071756573746960608201527f6f6e696e67206d756c7469706c652070656f706c6520746f206765742061732060808201527f6d75636820696e666f726d6174696f6e20617320796f752063616e20746f207360a08201527f6f6c76652074686520636173652e200a205461736b3a20596f752077696c6c2060c08201527f616374206c696b6520746865204e50432063686172616374657220415420414c60e08201527f4c2054494d45532e20596f752077696c6c20737065616b20746f2061206361726101008201527f2073616c65736d616e2061626f757420746865206d757264657220636173652e6101208201527f200a205468652073616c65736d616e206d6967687420646973747261637420796101408201527f6f7520696e746f20627579696e6720746865206361722062757420796f75206e6101608201527f65656420746f20737469636b20746f20746865206361736520616e64206765746101808201527f206173206d75636820696e666f726d6174696f6e206f7574206f662068696d206101a08201527f617320706f737369626c652e20596f752063616e206672616d652073756273656101c08201527f7175656e7420636f6e76657273696f6e206261736564206f6e2074686520696e6101e08201527f707574732e204b65657020796f757220636f6e766572736174696f6e20636f6e6102008201527531b4b9b296103bb4ba3434b7101a98103bb7b932399760511b610220820152611b0f565b604081019081106001600160401b038211176115ec57604052565b634e487b7160e01b600052604160045260246000fd5b90601f801991011681019081106001600160401b038211176115ec57604052565b6001600160401b0381116115ec5760051b60200190565b81601f82011215611690578035906001600160401b0382116115ec576040519261166e601f8401601f191660200185611602565b8284526020838301011161169057816000926020809301838601378301015290565b600080fd5b60005b8381106116a85750506000910152565b8181015183820152602001611698565b906020916116d181518092818552858086019101611695565b601f01601f1916010190565b602080820190808352835180925260408301928160408460051b8301019501936000915b8483106117115750505050505090565b909192939495848061172f600193603f198682030187528a516116b8565b9801930193019194939290611701565b90600182811c9216801561176f575b602083101461175957565b634e487b7160e01b600052602260045260246000fd5b91607f169161174e565b906000929180549161178a8361173f565b9182825260019384811690816000146117ec57506001146117ac575b50505050565b90919394506000526020928360002092846000945b8386106117d85750505050010190388080806117a6565b8054858701830152940193859082016117c1565b9294505050602093945060ff191683830152151560051b010190388080806117a6565b60405190604082018281106001600160401b038211176115ec5760405260606020838281520152565b60405190611845826115d1565b60048252633ab9b2b960e11b6020830152565b80548210156118745760005260206000209060011b0190600090565b634e487b7160e01b600052603260045260246000fd5b8054680100000000000000008110156115ec576118ae906001928382018155611858565b611ad45782518051916001600160401b03928381116115ec5784906118d3835461173f565b93601f94858111611a83575b50602090858311600114611a1a57602094929160009183611a0f575b5050600019600383901b1c191690831b1781555b0194015180519283116115ec57611926855461173f565b8281116119c7575b5060209183116001146119675792829391839260009461195c575b50501b916000199060031b1c1916179055565b015192503880611949565b90601f198316918560005283826000209360005b878282106119ae57505010611995575b505050811b019055565b015160001960f88460031b161c1916905538808061198b565b848601518755909501946020948501948793500161197b565b8560005260206000208380860160051c82019260208710611a06575b0160051c019085905b8281106119fa57505061192e565b600081550185906119ec565b925081926119e3565b0151905038806118fb565b90601f1983169185600052816000209260005b818110611a6b57509185939185602098969410611a52575b505050811b01815561190f565b015160001960f88460031b161c19169055388080611a45565b8284015185558a969094019360209384019301611a2d565b909192506000848152602081208680860160051c82019360208710611acb575b908a9695949392910160051c01915b828110611ac05750506118df565b818155899501611ab2565b93508193611aa3565b634e487b7160e01b600052600060045260246000fd5b6000198114611af95760010190565b634e487b7160e01b600052601160045260246000fd5b9060019182546000908152602081815284600260408420336bffffffffffffffffffffffff60a01b825416178155611b5f611b4861180f565b8786820152611b55611838565b815284830161188a565b0155845492611b6d84611aea565b8655611b7a60045461173f565b15611cfe5760035460405163a252a95160e01b8152600480820187905260806024830152549097849389936001600160a01b031692879283929190611bbe8261173f565b91826084890152878282169182600014611cd7575050600114611c76575b5050611bf785939284926003198483030160448501526116b8565b6003606483015203925af1948515611c6b57839495611c3c575b50505b7fd1de2c4de50323207202f3df0bb1dec1a42e233aec245f25519d674c10bd72ca339180a390565b90809293503d8311611c64575b611c538183611602565b810103126103e85781903880611c11565b503d611c49565b6040513d84823e3d90fd5b6004855291925083917f8a35acfbc15ff81a39ae7d344fd709f28e8600b4aa8c65c6b64bfe7fe36bd19b5b828410611cba57505050840160a40190611bf785611bdc565b805497840160a4019790975288978d978b96509301928101611ca1565b60ff191660a48083019190915293151560051b81019093019450611bf7929150611bdc9050565b50600354604051636c4e899160e11b815260048101859052955081908690602490829086906001600160a01b03165af1948515611c6b57839495611d44575b5050611c14565b90809293503d8311611d6c575b611d5b8183611602565b810103126103e85781903880611d3d565b503d611d51565b15611d7a57565b60405162461bcd60e51b815260206004820152601460248201527343616c6c6572206973206e6f74206f7261636c6560601b6044820152606490fd5b600092918154611dc58161173f565b92600191808316908115611e1d5750600114611de15750505050565b90919293945060005260209081600020906000915b858310611e0c57505050500190388080806117a6565b805485840152918301918101611df6565b60ff19168452505050811515909102019150388080806117a6565b80518210156118745760209160051b010190565b90611e5682611623565b611e636040519182611602565b8281528092611e74601f1991611623565b019060005b828110611e8557505050565b806060602080938501015201611e7956fea26469706673582212205476124710e833658ac73d5d4e269d1363f57d7c3c5a009c7f6ad0be95d16beb64736f6c63430008110033",
  "devdoc": {
    "kind": "dev",
    "methods": {},
    "version": 1
  },
  "userdoc": {
    "kind": "user",
    "methods": {},
    "version": 1
  },
  "storageLayout": {
    "storage": [
      {
        "astId": 21,
        "contract": "contracts/InvestigatorAgent.sol:InvestigatorAgent",
        "label": "chatRuns",
        "offset": 0,
        "slot": "0",
        "type": "t_mapping(t_uint256,t_struct(ChatRun)16_storage)"
      },
      {
        "astId": 23,
        "contract": "contracts/InvestigatorAgent.sol:InvestigatorAgent",
        "label": "chatRunsCount",
        "offset": 0,
        "slot": "1",
        "type": "t_uint256"
      },
      {
        "astId": 31,
        "contract": "contracts/InvestigatorAgent.sol:InvestigatorAgent",
        "label": "owner",
        "offset": 0,
        "slot": "2",
        "type": "t_address"
      },
      {
        "astId": 33,
        "contract": "contracts/InvestigatorAgent.sol:InvestigatorAgent",
        "label": "oracleAddress",
        "offset": 0,
        "slot": "3",
        "type": "t_address"
      },
      {
        "astId": 35,
        "contract": "contracts/InvestigatorAgent.sol:InvestigatorAgent",
        "label": "knowledgeBase",
        "offset": 0,
        "slot": "4",
        "type": "t_string_storage"
      }
    ],
    "types": {
      "t_address": {
        "encoding": "inplace",
        "label": "address",
        "numberOfBytes": "20"
      },
      "t_array(t_struct(Message)7_storage)dyn_storage": {
        "base": "t_struct(Message)7_storage",
        "encoding": "dynamic_array",
        "label": "struct InvestigatorAgent.Message[]",
        "numberOfBytes": "32"
      },
      "t_mapping(t_uint256,t_struct(ChatRun)16_storage)": {
        "encoding": "mapping",
        "key": "t_uint256",
        "label": "mapping(uint256 => struct InvestigatorAgent.ChatRun)",
        "numberOfBytes": "32",
        "value": "t_struct(ChatRun)16_storage"
      },
      "t_string_storage": {
        "encoding": "bytes",
        "label": "string",
        "numberOfBytes": "32"
      },
      "t_struct(ChatRun)16_storage": {
        "encoding": "inplace",
        "label": "struct InvestigatorAgent.ChatRun",
        "members": [
          {
            "astId": 9,
            "contract": "contracts/InvestigatorAgent.sol:InvestigatorAgent",
            "label": "owner",
            "offset": 0,
            "slot": "0",
            "type": "t_address"
          },
          {
            "astId": 13,
            "contract": "contracts/InvestigatorAgent.sol:InvestigatorAgent",
            "label": "messages",
            "offset": 0,
            "slot": "1",
            "type": "t_array(t_struct(Message)7_storage)dyn_storage"
          },
          {
            "astId": 15,
            "contract": "contracts/InvestigatorAgent.sol:InvestigatorAgent",
            "label": "messagesCount",
            "offset": 0,
            "slot": "2",
            "type": "t_uint256"
          }
        ],
        "numberOfBytes": "96"
      },
      "t_struct(Message)7_storage": {
        "encoding": "inplace",
        "label": "struct InvestigatorAgent.Message",
        "members": [
          {
            "astId": 4,
            "contract": "contracts/InvestigatorAgent.sol:InvestigatorAgent",
            "label": "role",
            "offset": 0,
            "slot": "0",
            "type": "t_string_storage"
          },
          {
            "astId": 6,
            "contract": "contracts/InvestigatorAgent.sol:InvestigatorAgent",
            "label": "content",
            "offset": 0,
            "slot": "1",
            "type": "t_string_storage"
          }
        ],
        "numberOfBytes": "64"
      },
      "t_uint256": {
        "encoding": "inplace",
        "label": "uint256",
        "numberOfBytes": "32"
      }
    }
  }
}