{
  "address": "0xaF71239095D4E9AE063B1e9e4e8Ace2D872D38b1",
  "abi": [
    {
      "inputs": [
        {
          "internalType": "address",
          "name": "initialOracleAddress",
          "type": "address"
        },
        {
          "internalType": "string",
          "name": "knowledgeBaseCID",
          "type": "string"
        }
      ],
      "stateMutability": "nonpayable",
      "type": "constructor"
    },
    {
      "anonymous": false,
      "inputs": [
        {
          "indexed": true,
          "internalType": "address",
          "name": "owner",
          "type": "address"
        },
        {
          "indexed": true,
          "internalType": "uint256",
          "name": "chatId",
          "type": "uint256"
        }
      ],
      "name": "ChatCreated",
      "type": "event"
    },
    {
      "anonymous": false,
      "inputs": [
        {
          "indexed": true,
          "internalType": "address",
          "name": "newOracleAddress",
          "type": "address"
        }
      ],
      "name": "OracleAddressUpdated",
      "type": "event"
    },
    {
      "inputs": [],
      "name": "RunMurdererNPC",
      "outputs": [
        {
          "internalType": "uint256",
          "name": "i",
          "type": "uint256"
        }
      ],
      "stateMutability": "nonpayable",
      "type": "function"
    },
    {
      "inputs": [
        {
          "internalType": "string",
          "name": "message",
          "type": "string"
        },
        {
          "internalType": "uint256",
          "name": "runId",
          "type": "uint256"
        }
      ],
      "name": "addMessage",
      "outputs": [],
      "stateMutability": "nonpayable",
      "type": "function"
    },
    {
      "inputs": [
        {
          "internalType": "uint256",
          "name": "",
          "type": "uint256"
        }
      ],
      "name": "chatRuns",
      "outputs": [
        {
          "internalType": "address",
          "name": "owner",
          "type": "address"
        },
        {
          "internalType": "uint256",
          "name": "messagesCount",
          "type": "uint256"
        }
      ],
      "stateMutability": "view",
      "type": "function"
    },
    {
      "inputs": [
        {
          "internalType": "uint256",
          "name": "chatId",
          "type": "uint256"
        }
      ],
      "name": "getMessageHistoryContents",
      "outputs": [
        {
          "internalType": "string[]",
          "name": "",
          "type": "string[]"
        }
      ],
      "stateMutability": "view",
      "type": "function"
    },
    {
      "inputs": [
        {
          "internalType": "uint256",
          "name": "chatId",
          "type": "uint256"
        }
      ],
      "name": "getMessageHistoryRoles",
      "outputs": [
        {
          "internalType": "string[]",
          "name": "",
          "type": "string[]"
        }
      ],
      "stateMutability": "view",
      "type": "function"
    },
    {
      "inputs": [],
      "name": "knowledgeBase",
      "outputs": [
        {
          "internalType": "string",
          "name": "",
          "type": "string"
        }
      ],
      "stateMutability": "view",
      "type": "function"
    },
    {
      "inputs": [
        {
          "internalType": "uint256",
          "name": "runId",
          "type": "uint256"
        },
        {
          "internalType": "string[]",
          "name": "documents",
          "type": "string[]"
        },
        {
          "internalType": "string",
          "name": "",
          "type": "string"
        }
      ],
      "name": "onOracleKnowledgeBaseQueryResponse",
      "outputs": [],
      "stateMutability": "nonpayable",
      "type": "function"
    },
    {
      "inputs": [
        {
          "internalType": "uint256",
          "name": "runId",
          "type": "uint256"
        },
        {
          "internalType": "string",
          "name": "response",
          "type": "string"
        },
        {
          "internalType": "string",
          "name": "",
          "type": "string"
        }
      ],
      "name": "onOracleLlmResponse",
      "outputs": [],
      "stateMutability": "nonpayable",
      "type": "function"
    },
    {
      "inputs": [],
      "name": "oracleAddress",
      "outputs": [
        {
          "internalType": "address",
          "name": "",
          "type": "address"
        }
      ],
      "stateMutability": "view",
      "type": "function"
    },
    {
      "inputs": [
        {
          "internalType": "address",
          "name": "newOracleAddress",
          "type": "address"
        }
      ],
      "name": "setOracleAddress",
      "outputs": [],
      "stateMutability": "nonpayable",
      "type": "function"
    },
    {
      "inputs": [
        {
          "internalType": "string",
          "name": "message",
          "type": "string"
        }
      ],
      "name": "startChat",
      "outputs": [
        {
          "internalType": "uint256",
          "name": "",
          "type": "uint256"
        }
      ],
      "stateMutability": "nonpayable",
      "type": "function"
    }
  ],
  "transactionHash": "0x0db2642e9f4ce0cab7cc76e12a9f0e58561840e90408e27028f402bfb8cd2cf4",
  "args": [
    "0x68EC9556830AD097D661Df2557FBCeC166a0A075",
    ""
  ],
  "numDeployments": 5,
  "solcInputHash": "b757d53c09807b1d293697e176c20d62",
  "bytecode": "0x608060405234620002475762001ad8803803806200001d816200024c565b928339810190604081830312620002475780516001600160a01b038116919082900362000247576020818101516001600160401b039283821162000247570192601f90858286011215620002475784518481116200021c57601f19956200008a828501881686016200024c565b978289528583830101116200024757849060005b838110620002325750506000918801015260018060a01b031933816002541617600255600354161760035584519283116200021c576004948554926001938481811c9116801562000211575b82821014620001fc57838111620001b1575b5080928511600114620001485750839450908392916000946200013c575b50501b916000199060031b1c19161790555b6040516118659081620002738239f35b0151925038806200011a565b9294849081168760005284600020946000905b888383106200019657505050106200017c575b505050811b0190556200012c565b015160001960f88460031b161c191690553880806200016e565b8587015188559096019594850194879350908101906200015b565b87600052816000208480880160051c820192848910620001f2575b0160051c019085905b828110620001e5575050620000fc565b60008155018590620001d5565b92508192620001cc565b602288634e487b7160e01b6000525260246000fd5b90607f1690620000ea565b634e487b7160e01b600052604160045260246000fd5b8181018301518a82018401528692016200009e565b600080fd5b6040519190601f01601f191682016001600160401b038111838210176200021c5760405256fe60406080815260048036101561001457600080fd5b600091823560e01c80632843d13514610b2b5780632d08d82a14610aee5780634c69c00f14610a4757806350064ac0146107ab578063632cc98b14610772578063941fac371461046d578063a1b67ed1146102f7578063a89ae4ba146102ce578063eb17429a14610235578063ed6e39e5146101855763f997cc251461009957600080fd5b34610181578260031936011261018157805191838154906100b9826110d6565b8086529260019280841690811561015657506001146100fa575b6100f686866100e4828b0383610f96565b5191829160208352602083019061104f565b0390f35b815294507f8a35acfbc15ff81a39ae7d344fd709f28e8600b4aa8c65c6b64bfe7fe36bd19b5b82861061013e575050506100e48260206100f69582010194386100d3565b80546020878701810191909152909501948101610120565b90506100f69750869350602092506100e494915060ff191682840152151560051b82010194386100d3565b8280fd5b503461018157602091826003193601126102315735928381528083526001906101b28284832001546117e5565b9381835b6101c8575b8451806100f68882611074565b86835282825283858420015481101561022c5790610224826102026102096101f68796898b819a20016111f0565b50895192838092611110565b0382610f96565b610213828a6117d1565b5261021e81896117d1565b50611483565b9091926101b6565b6101bb565b8380fd5b5091346102cb57602091826003193601126102c75791909135918281528082526001916102668386842001546117e5565b9382845b61027c575b8651806100f68882611074565b8184528383528487852001548110156102c257906102b982866102096102a9889796838d819b20016111f0565b506102028c518094819301611110565b9091929361026a565b61026f565b5080fd5b80fd5b8382346102c757816003193601126102c75760035490516001600160a01b039091168152602090f35b509190346102c75760603660031901126102c75767ffffffffffffffff6024358181116102315761032b9036908401610fd0565b90604435908111610231576103439036908401610fd0565b5061035960018060a01b0360035416331461170c565b813583526020838152848420906002600183019201938454600019810190811161045a5761038790846111f0565b5087516103a98161039b868201809561174f565b03601f198101835282610f96565b519020875183810190633ab9b2b960e11b82528381526103c881610f64565b51902003610419575068185cdcda5cdd185b9d60ba1b61040a9495966103ec6111a6565b948386015251916103fc83610f64565b600983528201528252611222565b6104148154611483565b905580f35b60649187519162461bcd60e51b8352820152601860248201527f4e6f206d65737361676520746f20726573706f6e6420746f00000000000000006044820152fd5b634e487b7160e01b875260118252602487fd5b5090346101815760031991808336011261023157813567ffffffffffffffff811161076e5761049f9036908401610fd0565b926024928335918287526020958787528488209160019283810160028201908154600019810190811161075c576104d690826111f0565b5061039b6104ec8d8c519283918201809561174f565b51902089518c81019068185cdcda5cdd185b9d60ba1b82526009815261051181610f64565b5190200361071a5791546001600160a01b039290831633036106da57918a97969593916105578d96946105426111a6565b90868c8301526105506111d0565b8252611222565b6105618154611483565b905561056d86546110d6565b156106a5576003541694608089519a8b9863a252a95160e01b8a52838a0152880152849381549161059d836110d6565b928360848b015289838216918260001461067d575050600114610620575b50505082869493926105d6928680950301604485015261104f565b6003606483015203925af190811561061757506105f257505080f35b813d8311610610575b6106058183610f96565b810103126102cb5780f35b503d6105fb565b513d85823e3d90fd5b865291935084917f8a35acfbc15ff81a39ae7d344fd709f28e8600b4aa8c65c6b64bfe7fe36bd19b5b82841061066157505050850160a401918082876105bb565b805460a4858e0101528c998c99508e9750909301928101610649565b60ff191660a48083019190915294151560051b81019094019650849386935091506105bb9050565b935050505060039591955416948785519687948593636c4e899160e11b85528401525af190811561061757506105f257505080f35b6064878c8c818d519362461bcd60e51b85528401528201527f4f6e6c792063686174206f776e65722063616e20616464206d657373616765736044820152fd5b885162461bcd60e51b81528088018c9052601f818c01527f4e6f20726573706f6e736520746f2070726576696f7573206d657373616765006044820152606490fd5b634e487b7160e01b8d52601188528a8dfd5b8480fd5b509034610181576020366003190112610181579181923581528060205220600260018060a01b0382541691015482519182526020820152f35b5082346102cb57806003193601126102cb5781519061020082019082821067ffffffffffffffff831117610a3457602084610a2d858583526101db81527f596f75206172652061204e50432063686172616374657220696e20612067616d848201527f652e200a20596f7520776572652061206d7572646572657220616e6420697320838201527f6265696e6720696e766573746967617465642e200a205461736b3a20596f752060608201527f77696c6c20616374206c696b6520746865204e5043206368617261637465722060808201527f415420414c4c2054494d45532e200a20596f7520617265206d7572646572656460a08201527f20796f7572206f776e2062726f74686572206f7665722070726f70657274792060c08201527f646973707574652e20596f75206e65656420746f20636f6e76696e636520746860e08201527f6520696e76657374696761746f72207468617420796f75206c6f76656420796f6101008201527f75722062726f746865722076657279206d75636820616e642063616e277420656101208201527f76656e207468696e6b206f66206d7572646572696e672068696d2e200a20596f6101408201527f752063616e2073617920776861746576657220796f752077616e7420627574206101608201527f6e65656420746f2061766f696420737573706963696f6e7320617420616c6c206101808201527f636f73742e20596f75206a7573742070726576656e7420796f757273656c66206101a08201527f66726f6d2067657474696e67206361756768742e200a20596f75206e657665726101c08201527f2061646d697420746f206265696e672061206d757264657265722e00000000006101e08201526114a8565b9051908152f35b634e487b7160e01b815260418552602490fd5b5090346101815760203660031901126101815780356001600160a01b03818116939184900361076e57600254163303610ab5575050600380546001600160a01b031916821790557f107a9fafffb7ac890f780879e423760c9ffea8dcee8045681f40f542aede2cb88280a280f35b906020606492519162461bcd60e51b8352820152601360248201527221b0b63632b91034b9903737ba1037bbb732b960691b6044820152fd5b5082346102cb5760203660031901126102cb5782359067ffffffffffffffff82116102cb5750610b26602093610a2d92369101610fd0565b6114a8565b509190346102c75760603660031901126102c75780359060249384359267ffffffffffffffff95868511610f605736602386011215610f60578484013594610b7286610fb8565b90610b7f85519283610f96565b868252602096838884019160051b83010191368311610f5c57848101915b838310610f325750505050604435888111610f2e57610bbf9036908701610fd0565b506003546001600160a01b039190610bda908316331461170c565b838852878752848820600281015460019a9160001991828101918d01908211610f1c579081610c0c82610c1c946111f0565b508c8b519485918201809361174f565b0393610c30601f1995868101835282610f96565b5190208a518d810190633ab9b2b960e11b82528d8152610c4f81610f64565b51902003610eda578d91610c62916111f0565b5001938c895191610c7e83610c77818a611110565b0384610f96565b8c838251610e84575b50908b8f928493945b610e01575b50505050508051938411610def57610cad85546110d6565b601f8111610da7575b508a91601f8511600114610d4557508b9c84939284928d9e9d9b9c9d95610d3a575b50501b9260031b1c19161790555b60035416948785519687948593636c4e899160e11b85528401525af19081156106175750610d12578280f35b813d8311610d33575b610d258183610f96565b810103126102cb5738808280f35b503d610d1b565b015193503880610cd8565b8493919d941691858d528b8d20928d5b818110610d9257509d848d9e9f9d9b9c9d10610d7a575b50505050811b019055610ce6565b01519060f88460031b161c1916905538808080610d6c565b8f830151855593860193918d01918d01610d55565b858d528b8d20601f860160051c8101918d8710610de5575b601f0160051c01908e908e5b838210610dda57505050610cb6565b8155018e908e610dcb565b9091508190610dbf565b634e487b7160e01b8c5260418a52868cfd5b82939495919251861015610e78576021610e6e9392610e6892610e2489886117d1565b5194519482610e3c879451809285808801910161102c565b8301610e508251809385808501910161102c565b600560f91b9101918201520386810184520182610f96565b93611483565b91908b8e83610c90565b82919550849350610c95565b610ed2919294506034908d519381610ea5869351809284808701910161102c565b8201907305052932b632bb30b73a1031b7b73a32bc3a1d0560611b90820152036014810184520182610f96565b918c38610c87565b895162461bcd60e51b8152808c018d9052601c818a01527f4e6f206d65737361676520746f2061646420636f6e7465787420746f000000006044820152606490fd5b634e487b7160e01b8c5260118a52868cfd5b8780fd5b82358c8111610f58578a91610f4d8392893691870101610fd0565b815201920191610b9d565b8b80fd5b8980fd5b8580fd5b6040810190811067ffffffffffffffff821117610f8057604052565b634e487b7160e01b600052604160045260246000fd5b90601f8019910116810190811067ffffffffffffffff821117610f8057604052565b67ffffffffffffffff8111610f805760051b60200190565b81601f820112156110275780359067ffffffffffffffff8211610f805760405192611005601f8401601f191660200185610f96565b8284526020838301011161102757816000926020809301838601378301015290565b600080fd5b60005b83811061103f5750506000910152565b818101518382015260200161102f565b906020916110688151809281855285808601910161102c565b601f01601f1916010190565b602080820190808352835180925260408301928160408460051b8301019501936000915b8483106110a85750505050505090565b90919293949584806110c6600193603f198682030187528a5161104f565b9801930193019194939290611098565b90600182811c92168015611106575b60208310146110f057565b634e487b7160e01b600052602260045260246000fd5b91607f16916110e5565b9060009291805491611121836110d6565b9182825260019384811690816000146111835750600114611143575b50505050565b90919394506000526020928360002092846000945b83861061116f57505050500101903880808061113d565b805485870183015294019385908201611158565b9294505050602093945060ff191683830152151560051b0101903880808061113d565b604051906040820182811067ffffffffffffffff821117610f805760405260606020838281520152565b604051906111dd82610f64565b60048252633ab9b2b960e11b6020830152565b805482101561120c5760005260206000209060011b0190600090565b634e487b7160e01b600052603260045260246000fd5b805468010000000000000000811015610f80576112469060019283820181556111f0565b61146d57825180519167ffffffffffffffff92838111610f8057849061126c83546110d6565b93601f9485811161141c575b506020908583116001146113b3576020949291600091836113a8575b5050600019600383901b1c191690831b1781555b019401518051928311610f80576112bf85546110d6565b828111611360575b506020918311600114611300579282939183926000946112f5575b50501b916000199060031b1c1916179055565b0151925038806112e2565b90601f198316918560005283826000209360005b878282106113475750501061132e575b505050811b019055565b015160001960f88460031b161c19169055388080611324565b8486015187559095019460209485019487935001611314565b8560005260206000208380860160051c8201926020871061139f575b0160051c019085905b8281106113935750506112c7565b60008155018590611385565b9250819261137c565b015190503880611294565b90601f1983169185600052816000209260005b818110611404575091859391856020989694106113eb575b505050811b0181556112a8565b015160001960f88460031b161c191690553880806113de565b8284015185558a9690940193602093840193016113c6565b909192506000848152602081208680860160051c82019360208710611464575b908a9695949392910160051c01915b828110611459575050611278565b81815589950161144b565b9350819361143c565b634e487b7160e01b600052600060045260246000fd5b60001981146114925760010190565b634e487b7160e01b600052601160045260246000fd5b9060019182546000908152602081815284600260408420336bffffffffffffffffffffffff60a01b8254161781556114f86114e16111a6565b87868201526114ee6111d0565b8152848301611222565b015584549261150684611483565b86556115136004546110d6565b156116975760035460405163a252a95160e01b8152600480820187905260806024830152549097849389936001600160a01b031692879283929190611557826110d6565b9182608489015287828216918260001461167057505060011461160f575b5050611590859392849260031984830301604485015261104f565b6003606483015203925af1948515611604578394956115d5575b50505b7fd1de2c4de50323207202f3df0bb1dec1a42e233aec245f25519d674c10bd72ca339180a390565b90809293503d83116115fd575b6115ec8183610f96565b810103126102cb57819038806115aa565b503d6115e2565b6040513d84823e3d90fd5b6004855291925083917f8a35acfbc15ff81a39ae7d344fd709f28e8600b4aa8c65c6b64bfe7fe36bd19b5b82841061165357505050840160a4019061159085611575565b805497840160a4019790975288978d978b9650930192810161163a565b60ff191660a48083019190915293151560051b810190930194506115909291506115759050565b50600354604051636c4e899160e11b815260048101859052955081908690602490829086906001600160a01b03165af1948515611604578394956116dd575b50506115ad565b90809293503d8311611705575b6116f48183610f96565b810103126102cb57819038806116d6565b503d6116ea565b1561171357565b60405162461bcd60e51b815260206004820152601460248201527343616c6c6572206973206e6f74206f7261636c6560601b6044820152606490fd5b60009291815461175e816110d6565b926001918083169081156117b6575060011461177a5750505050565b90919293945060005260209081600020906000915b8583106117a5575050505001903880808061113d565b80548584015291830191810161178f565b60ff191684525050508115159091020191503880808061113d565b805182101561120c5760209160051b010190565b906117ef82610fb8565b6117fc6040519182610f96565b828152809261180d601f1991610fb8565b019060005b82811061181e57505050565b80606060208093850101520161181256fea26469706673582212207525b263de65cb596d36cab0c4ba5daaa3c6edf65488bcdd1478c0c74ec5d1bf64736f6c63430008110033",
  "devdoc": {
    "kind": "dev",
    "methods": {},
    "version": 1
  },
  "userdoc": {
    "kind": "user",
    "methods": {},
    "version": 1
  },
  "storageLayout": {
    "storage": [
      {
        "astId": 21,
        "contract": "contracts/MurdererAgent.sol:MurdererAgent",
        "label": "chatRuns",
        "offset": 0,
        "slot": "0",
        "type": "t_mapping(t_uint256,t_struct(ChatRun)16_storage)"
      },
      {
        "astId": 23,
        "contract": "contracts/MurdererAgent.sol:MurdererAgent",
        "label": "chatRunsCount",
        "offset": 0,
        "slot": "1",
        "type": "t_uint256"
      },
      {
        "astId": 31,
        "contract": "contracts/MurdererAgent.sol:MurdererAgent",
        "label": "owner",
        "offset": 0,
        "slot": "2",
        "type": "t_address"
      },
      {
        "astId": 33,
        "contract": "contracts/MurdererAgent.sol:MurdererAgent",
        "label": "oracleAddress",
        "offset": 0,
        "slot": "3",
        "type": "t_address"
      },
      {
        "astId": 35,
        "contract": "contracts/MurdererAgent.sol:MurdererAgent",
        "label": "knowledgeBase",
        "offset": 0,
        "slot": "4",
        "type": "t_string_storage"
      }
    ],
    "types": {
      "t_address": {
        "encoding": "inplace",
        "label": "address",
        "numberOfBytes": "20"
      },
      "t_array(t_struct(Message)7_storage)dyn_storage": {
        "base": "t_struct(Message)7_storage",
        "encoding": "dynamic_array",
        "label": "struct MurdererAgent.Message[]",
        "numberOfBytes": "32"
      },
      "t_mapping(t_uint256,t_struct(ChatRun)16_storage)": {
        "encoding": "mapping",
        "key": "t_uint256",
        "label": "mapping(uint256 => struct MurdererAgent.ChatRun)",
        "numberOfBytes": "32",
        "value": "t_struct(ChatRun)16_storage"
      },
      "t_string_storage": {
        "encoding": "bytes",
        "label": "string",
        "numberOfBytes": "32"
      },
      "t_struct(ChatRun)16_storage": {
        "encoding": "inplace",
        "label": "struct MurdererAgent.ChatRun",
        "members": [
          {
            "astId": 9,
            "contract": "contracts/MurdererAgent.sol:MurdererAgent",
            "label": "owner",
            "offset": 0,
            "slot": "0",
            "type": "t_address"
          },
          {
            "astId": 13,
            "contract": "contracts/MurdererAgent.sol:MurdererAgent",
            "label": "messages",
            "offset": 0,
            "slot": "1",
            "type": "t_array(t_struct(Message)7_storage)dyn_storage"
          },
          {
            "astId": 15,
            "contract": "contracts/MurdererAgent.sol:MurdererAgent",
            "label": "messagesCount",
            "offset": 0,
            "slot": "2",
            "type": "t_uint256"
          }
        ],
        "numberOfBytes": "96"
      },
      "t_struct(Message)7_storage": {
        "encoding": "inplace",
        "label": "struct MurdererAgent.Message",
        "members": [
          {
            "astId": 4,
            "contract": "contracts/MurdererAgent.sol:MurdererAgent",
            "label": "role",
            "offset": 0,
            "slot": "0",
            "type": "t_string_storage"
          },
          {
            "astId": 6,
            "contract": "contracts/MurdererAgent.sol:MurdererAgent",
            "label": "content",
            "offset": 0,
            "slot": "1",
            "type": "t_string_storage"
          }
        ],
        "numberOfBytes": "64"
      },
      "t_uint256": {
        "encoding": "inplace",
        "label": "uint256",
        "numberOfBytes": "32"
      }
    }
  }
}