{
  "address": "0x4A6e39E58A664043371503F26785aBe92011baf3",
  "abi": [
    {
      "inputs": [
        {
          "internalType": "address",
          "name": "initialOracleAddress",
          "type": "address"
        },
        {
          "internalType": "string",
          "name": "systemPrompt",
          "type": "string"
        }
      ],
      "stateMutability": "nonpayable",
      "type": "constructor"
    },
    {
      "anonymous": false,
      "inputs": [
        {
          "indexed": true,
          "internalType": "address",
          "name": "owner",
          "type": "address"
        },
        {
          "indexed": true,
          "internalType": "uint256",
          "name": "runId",
          "type": "uint256"
        }
      ],
      "name": "AgentRunCreated",
      "type": "event"
    },
    {
      "anonymous": false,
      "inputs": [
        {
          "indexed": true,
          "internalType": "address",
          "name": "newOracleAddress",
          "type": "address"
        }
      ],
      "name": "OracleAddressUpdated",
      "type": "event"
    },
    {
      "inputs": [],
      "name": "RunSalesmanNPC",
      "outputs": [
        {
          "internalType": "uint256",
          "name": "i",
          "type": "uint256"
        }
      ],
      "stateMutability": "nonpayable",
      "type": "function"
    },
    {
      "inputs": [
        {
          "internalType": "string",
          "name": "message",
          "type": "string"
        },
        {
          "internalType": "uint256",
          "name": "runId",
          "type": "uint256"
        }
      ],
      "name": "addMessage",
      "outputs": [],
      "stateMutability": "nonpayable",
      "type": "function"
    },
    {
      "inputs": [
        {
          "internalType": "uint256",
          "name": "",
          "type": "uint256"
        }
      ],
      "name": "agentRuns",
      "outputs": [
        {
          "internalType": "address",
          "name": "owner",
          "type": "address"
        },
        {
          "internalType": "uint256",
          "name": "responsesCount",
          "type": "uint256"
        },
        {
          "internalType": "uint8",
          "name": "max_iterations",
          "type": "uint8"
        },
        {
          "internalType": "bool",
          "name": "is_finished",
          "type": "bool"
        }
      ],
      "stateMutability": "view",
      "type": "function"
    },
    {
      "inputs": [
        {
          "internalType": "uint256",
          "name": "agentId",
          "type": "uint256"
        }
      ],
      "name": "getMessageHistoryContents",
      "outputs": [
        {
          "internalType": "string[]",
          "name": "",
          "type": "string[]"
        }
      ],
      "stateMutability": "view",
      "type": "function"
    },
    {
      "inputs": [
        {
          "internalType": "uint256",
          "name": "agentId",
          "type": "uint256"
        }
      ],
      "name": "getMessageHistoryRoles",
      "outputs": [
        {
          "internalType": "string[]",
          "name": "",
          "type": "string[]"
        }
      ],
      "stateMutability": "view",
      "type": "function"
    },
    {
      "inputs": [
        {
          "internalType": "uint256",
          "name": "runId",
          "type": "uint256"
        }
      ],
      "name": "isRunFinished",
      "outputs": [
        {
          "internalType": "bool",
          "name": "",
          "type": "bool"
        }
      ],
      "stateMutability": "view",
      "type": "function"
    },
    {
      "inputs": [
        {
          "internalType": "uint256",
          "name": "runId",
          "type": "uint256"
        },
        {
          "internalType": "string",
          "name": "response",
          "type": "string"
        },
        {
          "internalType": "string",
          "name": "errorMessage",
          "type": "string"
        }
      ],
      "name": "onOracleFunctionResponse",
      "outputs": [],
      "stateMutability": "nonpayable",
      "type": "function"
    },
    {
      "inputs": [
        {
          "internalType": "uint256",
          "name": "runId",
          "type": "uint256"
        },
        {
          "components": [
            {
              "internalType": "string",
              "name": "id",
              "type": "string"
            },
            {
              "internalType": "string",
              "name": "content",
              "type": "string"
            },
            {
              "internalType": "string",
              "name": "functionName",
              "type": "string"
            },
            {
              "internalType": "string",
              "name": "functionArguments",
              "type": "string"
            },
            {
              "internalType": "uint64",
              "name": "created",
              "type": "uint64"
            },
            {
              "internalType": "string",
              "name": "model",
              "type": "string"
            },
            {
              "internalType": "string",
              "name": "systemFingerprint",
              "type": "string"
            },
            {
              "internalType": "string",
              "name": "object",
              "type": "string"
            },
            {
              "internalType": "uint32",
              "name": "completionTokens",
              "type": "uint32"
            },
            {
              "internalType": "uint32",
              "name": "promptTokens",
              "type": "uint32"
            },
            {
              "internalType": "uint32",
              "name": "totalTokens",
              "type": "uint32"
            }
          ],
          "internalType": "struct IOracle.OpenAiResponse",
          "name": "response",
          "type": "tuple"
        },
        {
          "internalType": "string",
          "name": "errorMessage",
          "type": "string"
        }
      ],
      "name": "onOracleOpenAiLlmResponse",
      "outputs": [],
      "stateMutability": "nonpayable",
      "type": "function"
    },
    {
      "inputs": [],
      "name": "oracleAddress",
      "outputs": [
        {
          "internalType": "address",
          "name": "",
          "type": "address"
        }
      ],
      "stateMutability": "view",
      "type": "function"
    },
    {
      "inputs": [],
      "name": "prompt",
      "outputs": [
        {
          "internalType": "string",
          "name": "",
          "type": "string"
        }
      ],
      "stateMutability": "view",
      "type": "function"
    },
    {
      "inputs": [
        {
          "internalType": "string",
          "name": "query",
          "type": "string"
        },
        {
          "internalType": "uint8",
          "name": "max_iterations",
          "type": "uint8"
        }
      ],
      "name": "runAgent",
      "outputs": [
        {
          "internalType": "uint256",
          "name": "i",
          "type": "uint256"
        }
      ],
      "stateMutability": "nonpayable",
      "type": "function"
    },
    {
      "inputs": [
        {
          "internalType": "address",
          "name": "newOracleAddress",
          "type": "address"
        }
      ],
      "name": "setOracleAddress",
      "outputs": [],
      "stateMutability": "nonpayable",
      "type": "function"
    }
  ],
  "transactionHash": "0x6026f99cca736ec714cf98811dcf318422389c19095b646beabb77b4843c06dc",
  "args": [
    "0x4168668812C94a3167FCd41D12014c5498D74d7e",
    "You are a helpful assistant \n"
  ],
  "numDeployments": 1,
  "solcInputHash": "15869aad19b18b222bbd1047b6a4ec48",
  "bytecode": "0x60806040523462000e8b5762002ba0803803806200001d8162000ed0565b92833981019060408183031262000e8b5780516001600160a01b038116919082900362000e8b576020810151906001600160401b03821162000e8b570182601f8201121562000e8b578051906001600160401b0382116200080d576200008d601f8301601f191660200162000ed0565b938285526020838301011162000e8b5760005b82811062000e7557505060206000918401015260018060a01b0319338160035416176003556004541617600455805160018060401b0381116200080d57600054600181811c9116801562000e6a575b6020821014620007ec57601f811162000e12575b50602091601f821160011462000d9d5791819260009262000d91575b50508160011b916000199060031b1c1916176000555b6040516101a081016001600160401b038111828210176200080d576040526200015d62000e90565b601381527f6770742d342d747572626f2d707265766965770000000000000000000000000060208201528152601560208201526200019a62000eb0565b6000815260408201526103e8606082015260156080820152620001bc62000e90565b600f81526e7b2274797065223a2274657874227d60881b602082015260a0820152600060c0820152620001ee62000eb0565b6000815260e0820152600a610100820152610120606581830152604051808281011060018060401b0383830111176200080d5781810160405261010081527f5b7b2274797065223a2266756e6374696f6e222c2266756e6374696f6e223a7b60208201527f226e616d65223a22696d6167655f67656e65726174696f6e222c22646573637260408201527f697074696f6e223a2247656e65726174657320616e20696d616765207573696e60608201527f672044616c6c652d32222c22706172616d6574657273223a7b2274797065223a60808201527f226f626a656374222c2270726f70657274696573223a7b2270726f6d7074223a60a08201527f7b2274797065223a22737472696e67222c226465736372697074696f6e223a2260c08201527f44616c6c652d322070726f6d707420746f2067656e657261746520616e20696d60e08201527f616765227d7d2c227265717569726564223a5b2270726f6d7074225d7d7d7d5d6101008201526101408301526200036d62000e90565b60048152636175746f60e01b60208201526101608301526200038e62000eb0565b60008152610180830152815180519092906001600160401b0381116200080d57600554600181811c9116801562000d86575b6020821014620007ec57601f811162000d3c575b506020601f821160011462000ccd578192939460009262000cc1575b50508160011b916000199060031b1c1916176005555b602081015160ff19600654169060ff1617600655604081015191825160018060401b0381116200080d57600754600181811c9116801562000cb6575b6020821014620007ec57601f811162000c50575b506020601f821160011462000be1578192939460009262000bd5575b50508160011b916000199060031b1c1916176007555b63ffffffff60608301511660085490608084015160201b64ff00000000169164ffffffffff1916171760085560a082015191825160018060401b0381116200080d57600954600181811c9116801562000bca575b6020821014620007ec57601f811162000b64575b506020601f821160011462000af5578192939460009262000ae9575b50508160011b916000199060031b1c1916176009555b60c0810151600a5560e081015180519092906001600160401b0381116200080d57600b54600181811c9116801562000ade575b6020821014620007ec57601f811162000a78575b506020601f821160011462000a095781929394600092620009fd575b50508160011b916000199060031b1c191617600b555b610100820151600c55810151600d5561014081015180519091906001600160401b0381116200080d57600e54600181811c91168015620009f2575b6020821014620007ec57601f811162000988575b50602092601f82116001146200091d579281929360009262000911575b50508160011b916000199060031b1c191617600e555b610160810151805191906001600160401b0383116200080d57600f54600181811c9116801562000906575b6020821014620007ec57601f8111620008ad575b50602090601f84116001146200082f5761018093916000918362000823575b50508160011b916000199060031b1c191617600f555b015180516001600160401b0381116200080d57601054600181811c9116801562000802575b6020821014620007ec57601f811162000782575b50602091601f821160011462000718579181926000926200070c575b50508160011b916000199060031b1c1916176010555b604051611c69908162000ef78239f35b015190503880620006e6565b601f19821692601060005260206000209160005b85811062000769575083600195106200074f575b505050811b01601055620006fc565b015160001960f88460031b161c1916905538808062000740565b919260206001819286850151815501940192016200072c565b60106000527f1b6847dc741a1b0cd08d278845f9d819d87b734759afb55fe2de5cb82a9ae672601f830160051c81019160208410620007e1575b601f0160051c01905b818110620007d45750620006ca565b60008155600101620007c5565b9091508190620007bc565b634e487b7160e01b600052602260045260246000fd5b90607f1690620006b6565b634e487b7160e01b600052604160045260246000fd5b0151905038806200067b565b600f600090815260008051602062002b80833981519152929190601f198616905b8181106200089457509160019391866101809794106200087a575b505050811b01600f5562000691565b015160001960f88460031b161c191690553880806200086b565b9293602060018192878601518155019501930162000850565b600f60005260008051602062002b80833981519152601f850160051c81019160208610620008fb575b601f0160051c01905b818110620008ee57506200065c565b60008155600101620008df565b9091508190620008d6565b90607f169062000648565b01519050388062000607565b601f19821693600e60005260206000209160005b8681106200096f575083600195961062000955575b505050811b01600e556200061d565b015160001960f88460031b161c1916905538808062000946565b9192602060018192868501518155019401920162000931565b600e6000527fbb7b4a454dc3493923482f07822329ed19e8244eff582cc204f8554c3620c3fd601f830160051c81019160208410620009e7575b601f0160051c01905b818110620009da5750620005ea565b60008155600101620009cb565b9091508190620009c2565b90607f1690620005d6565b01519050388062000585565b600b60005260206000209060005b601f198416811062000a5f5750600193949583601f1981161062000a45575b505050811b01600b556200059b565b015160001960f88460031b161c1916905538808062000a36565b9091602060018192858a01518155019301910162000a17565b600b6000527f0175b7a638427703f0dbe7bb9bbf987a2551717b34e79f33b5b1008d1fa01db9601f830160051c81016020841062000ad6575b601f830160051c8201811062000ac957505062000569565b6000815560010162000ab1565b508062000ab1565b90607f169062000555565b0151905038806200050c565b600960005260206000209060005b601f198416811062000b4b5750600193949583601f1981161062000b31575b505050811b0160095562000522565b015160001960f88460031b161c1916905538808062000b22565b9091602060018192858a01518155019301910162000b03565b60096000527f6e1540171b6c0c960b71a7020d9f60077f6af931a8bbf590da0223dacf75c7af601f830160051c81016020841062000bc2575b601f830160051c8201811062000bb5575050620004f0565b6000815560010162000b9d565b508062000b9d565b90607f1690620004dc565b01519050388062000472565b600760005260206000209060005b601f198416811062000c375750600193949583601f1981161062000c1d575b505050811b0160075562000488565b015160001960f88460031b161c1916905538808062000c0e565b9091602060018192858a01518155019301910162000bef565b60076000527fa66cc928b5edb82af9bd49922954155ab7b0942694bea4ce44661d9a8736c688601f830160051c81016020841062000cae575b601f830160051c8201811062000ca157505062000456565b6000815560010162000c89565b508062000c89565b90607f169062000442565b015190503880620003f0565b600560005260206000209060005b601f198416811062000d235750600193949583601f1981161062000d09575b505050811b0160055562000406565b015160001960f88460031b161c1916905538808062000cfa565b9091602060018192858a01518155019301910162000cdb565b60056000526020600020601f830160051c81016020841062000d7e575b601f830160051c8201811062000d71575050620003d4565b6000815560010162000d59565b508062000d59565b90607f1690620003c0565b0151905038806200011f565b6000808052601f1983169360008051602062002b608339815191529290915b85811062000df95750836001951062000ddf575b505050811b0160005562000135565b015160001960f88460031b161c1916905538808062000dd0565b9192602060018192868501518155019401920162000dbc565b6000805260008051602062002b60833981519152601f830160051c8101916020841062000e5f575b601f0160051c01905b81811062000e52575062000103565b6000815560010162000e43565b909150819062000e3a565b90607f1690620000ef565b80602080928401015182828801015201620000a0565b600080fd5b60408051919082016001600160401b038111838210176200080d57604052565b60405190602082016001600160401b038111838210176200080d57604052565b6040519190601f01601f191682016001600160401b038111838210176200080d5760405256fe608060408181526004908136101561001657600080fd5b600092833560e01c9081632eab9c8114610dd6575080634c69c00f14610d325780634cecd88e14610b745780637397454d146109f95780637c65d711146109bb578063941fac371461075a578063a89ae4ba14610732578063c63b0295146106db578063daec051f146105a0578063e57d0e97146101fd578063eb17429a146101645763ed6e39e5146100a857600080fd5b34610160576020918260031936011261015c5792919235918281526001938481526100d7858484200154611b80565b9382865b6100f1575b8451806100ed888261109f565b0390f35b818452868352868585200154811015610157579061014e8261012c6101336101208897968c8b819b200161112b565b50895192838092610fc1565b0382610e54565b61013d828a611bca565b526101488189611bca565b5061196b565b909192936100db565b6100e0565b8380fd5b8280fd5b5091346101fa57602091826003193601126101f6579190913591828152600191828152610195838684200154611b80565b9382845b6101ab575b8651806100ed888261109f565b8184528483528487852001548110156101f157906101e882866101336101d8889796838d819b200161112b565b5061012c8c518094819301610fc1565b90919293610199565b61019e565b5080fd5b80fd5b508290346101f657816003193601126101f6578051916101c0830183811067ffffffffffffffff82111761058d57825261018f83526020937f596f75206172652061204e50432063686172616374657220696e20612067616d858501527f652e20596f7520776572652061207769746e65737320746f2061206d75726465838501527f7220627574206172652072656c756374616e7420746f2064697363757373206960608501527f74206f7220736179207768617420796f75207361772e205461736b3a20596f7560808501527f2077696c6c20616374206c696b6520746865204e50432063686172616374657260a08501527f20415420414c4c2054494d45532e20596f75206172652061206661737420746160c08501527f6c6b696e67206361722073616c65736d616e2074686174207761736e2774206960e08501527f6e766f6c7665642e20596f75206172652077696c6c696e6720746f2074616c6b6101008501527f206275742061726520616c736f20747279696e6720746f2073656c6c206d65206101208501527f61206361722e20596f7520646f6e2774206861766520616e79207265616c20696101408501527f6e666f20746f2067697665206d652e20596f752061726520696e206c6f7665206101608501527f7769746820636f6e7665727461626c65732e20596f752061726520616c7761796101808501526e39903b32b93c9032bc31b4ba32b21760891b6101a08501526002548252600185526104ba83832094336bffffffffffffffffffffffff60a01b87541617865560038601600181548660028a015561ffff191617905561045e611101565b855161046d8161012c81610f1d565b88820152855161047c81610e06565b600681526573797374656d60d01b89820152815261049e60018801918261115d565b6104a6611101565b91888301526104b36113be565b825261115d565b600254936001850180861161057a576002556104f8868660018060a01b03948581541690878951809681958294633c38a5f560e01b845283016113de565b03925af18015610570578694939291889161053d575b50505416907f9697c88a6be3b3ed5062f2dcbd719a10914832320686f14e24f7756210a6685e9080a351908152f35b908092939495503d8311610569575b6105568183610e54565b810103126101605790849291868861050e565b503d61054c565b85513d86823e3d90fd5b634e487b7160e01b845260118352602484fd5b634e487b7160e01b825260418552602482fd5b5034610160578060031936011261016057813567ffffffffffffffff811161015c576105cf9036908401610e76565b926024359260ff84168094036101f65760025482526106266020956001875284842095336bffffffffffffffffffffffff60a01b885416178755600387019081548660028a015561ffff191617905561045e611101565b600254936001850180861161057a57600255610664868660018060a01b03948581541690878951809681958294633c38a5f560e01b845283016113de565b03925af1801561057057869493929188916106a85750505416907f9697c88a6be3b3ed5062f2dcbd719a10914832320686f14e24f7756210a6685e9080a351908152f35b908092939495503d83116106d4575b6106c18183610e54565b810103126101605790849291863861050e565b503d6106b7565b509034610160576020366003190112610160578160809360ff9235815260016020522060018060a01b03815416926003600283015492015491815194855260208501528282169084015260081c1615156060820152f35b5090346101605782600319360112610160575490516001600160a01b03909116815260209150f35b5034610160578060031936011261016057813567ffffffffffffffff811161015c576107899036908401610e76565b9160243590818552600193602094808652848720918183016002840192835460001981019081116109a85790896107c18c938561112b565b50918a51928391838301959180546107d881610ee3565b9581841691821561098957505060011461094c575b5050610802925003601f198101835282610e54565b51902087518981019068185cdcda5cdd185b9d60ba1b82526009815261082781610e06565b519020036109095792546001600160a01b039390841633036108c85791610859610883979694928996946104a6611101565b610863815461196b565b905581541690878551809781958294633c38a5f560e01b845283016113de565b03925af19081156108bf5750610897578280f35b813d83116108b8575b6108aa8183610e54565b810103126101fa5738808280f35b503d6108a0565b513d85823e3d90fd5b60648589808a519262461bcd60e51b845283015260248201527f4f6e6c792063686174206f776e65722063616e20616464206d657373616765736044820152fd5b865162461bcd60e51b8152808601899052601f60248201527f4e6f20726573706f6e736520746f2070726576696f7573206d657373616765006044820152606490fd5b8f91908f935082528282205b858310610970575050506108029282010138806107ed565b819392945080548386890101520192018d918593610958565b925093505061080294915060ff191686528015150282010138806107ed565b634e487b7160e01b8b526011875260248bfd5b8382346101f657816003193601126101f65780516100ed916109e7826109e081610f1d565b0383610e54565b5191829160208352602083019061107a565b508290346101f65760603660031901126101f65767ffffffffffffffff908335602435838111610b7057610a309036908701610e76565b92604435818111610b6c57610a489036908801610e76565b9360018060a01b0391610a5f838954163314611903565b838752602095600187528588209260ff600385015460081c16610b37578651909288820190811182821017610b245793610ad58b948a9794610aae6002958e8d9c9a610ae09e52815282611bde565b15610b1c575b50610abd611101565b90610ac66113be565b8252888201526001830161115d565b01610863815461196b565b03925af19081156108bf5750610af4578280f35b813d8311610b15575b610b078183610e54565b810103126101fa5781808280f35b503d610afd565b90508c610ab4565b634e487b7160e01b8a5260418b5260248afd5b865162461bcd60e51b8152808b01899052600f60248201526e149d5b881a5cc8199a5b9a5cda1959608a1b6044820152606490fd5b8580fd5b8480fd5b5090346101605760031960603682011261015c5760243567ffffffffffffffff93848211610b6c5761016080938336030112610b6c57805192830183811086821117610d1f57815281840135858111610d1b57610bd690853691850101610e76565b83526024820135858111610d1b57610bf390853691850101610e76565b60208401526044820135858111610d1b57610c1390853691850101610e76565b908301526064810135848111610b6c57610c3290843691840101610e76565b606083015260848101358481168103610b6c57608083015260a4810135848111610b6c57610c6590843691840101610e76565b60a083015260c4810135848111610b6c57610c8590843691840101610e76565b60c083015260e4810135848111610b6c57610cdd91610cac61014492863691840101610e76565b60e0850152610cbe6101048201610ed2565b610100850152610cd16101248201610ed2565b61012085015201610ed2565b61014082015260443592831161015c57610cfd610d189336908401610e76565b91610d1260018060a01b038254163314611903565b35611990565b80f35b8680fd5b634e487b7160e01b875260418552602487fd5b5090346101605760203660031901126101605780356001600160a01b038181169391849003610b7057600354163303610d9d575080546001600160a01b031916821790557f107a9fafffb7ac890f780879e423760c9ffea8dcee8045681f40f542aede2cb88280a280f35b906020606492519162461bcd60e51b8352820152601360248201527221b0b63632b91034b9903737ba1037bbb732b960691b6044820152fd5b9290503461015c57602036600319011261015c573583526001602090815292206003015460081c60ff1615158152f35b6040810190811067ffffffffffffffff821117610e2257604052565b634e487b7160e01b600052604160045260246000fd5b6020810190811067ffffffffffffffff821117610e2257604052565b90601f8019910116810190811067ffffffffffffffff821117610e2257604052565b81601f82011215610ecd5780359067ffffffffffffffff8211610e225760405192610eab601f8401601f191660200185610e54565b82845260208383010111610ecd57816000926020809301838601378301015290565b600080fd5b359063ffffffff82168203610ecd57565b90600182811c92168015610f13575b6020831014610efd57565b634e487b7160e01b600052602260045260246000fd5b91607f1691610ef2565b9060009160005490610f2e82610ee3565b80825291600190818116908115610fa45750600114610f4c57505050565b91929350600080527f290decd9548b62a8d60345a988386fc84ba6bc95484008f6362f93160ef3e563916000925b848410610f8c57505060209250010190565b80546020858501810191909152909301928101610f7a565b915050602093945060ff929192191683830152151560051b010190565b9060009291805491610fd283610ee3565b9182825260019384811690816000146110345750600114610ff4575b50505050565b90919394506000526020928360002092846000945b838610611020575050505001019038808080610fee565b805485870183015294019385908201611009565b9294505050602093945060ff191683830152151560051b01019038808080610fee565b60005b83811061106a5750506000910152565b818101518382015260200161105a565b9060209161109381518092818552858086019101611057565b601f01601f1916010190565b602080820190808352835180925260408301928160408460051b8301019501936000915b8483106110d35750505050505090565b90919293949584806110f1600193603f198682030187528a5161107a565b98019301930191949392906110c3565b604051906040820182811067ffffffffffffffff821117610e225760405260606020838281520152565b80548210156111475760005260206000209060011b0190600090565b634e487b7160e01b600052603260045260246000fd5b805468010000000000000000811015610e225761118190600192838201815561112b565b6113a857825180519167ffffffffffffffff92838111610e225784906111a78354610ee3565b93601f94858111611357575b506020908583116001146112ee576020949291600091836112e3575b5050600019600383901b1c191690831b1781555b019401518051928311610e22576111fa8554610ee3565b82811161129b575b50602091831160011461123b57928293918392600094611230575b50501b916000199060031b1c1916179055565b01519250388061121d565b90601f198316918560005283826000209360005b8782821061128257505010611269575b505050811b019055565b015160001960f88460031b161c1916905538808061125f565b848601518755909501946020948501948793500161124f565b8560005260206000208380860160051c820192602087106112da575b0160051c019085905b8281106112ce575050611202565b600081550185906112c0565b925081926112b7565b0151905038806111cf565b90601f1983169185600052816000209260005b81811061133f57509185939185602098969410611326575b505050811b0181556111e3565b015160001960f88460031b161c19169055388080611319565b8284015185558a969094019360209384019301611301565b909192506000848152602081208680860160051c8201936020871061139f575b908a9695949392910160051c01915b8281106113945750506111b3565b818155899501611386565b93508193611377565b634e487b7160e01b600052600060045260246000fd5b604051906113cb82610e06565b60048252633ab9b2b960e11b6020830152565b90815260206040818301526101a091826040820152600060059182549461140486610ee3565b806101e084015260019687811690816000146118e55750600114611888575b5060065460000b6060830152603f1990818385030160808401526000936007549061144d82610ee3565b91828252888a8216918260001461186a575050600114611810575b505060085463ffffffff811660a0850152861c60000b60c0840152818385030160e08401526000936009549061149d82610ee3565b91828252888a821691826000146117f2575050600114611798575b5050600a546101008401528284038201610120840152600b546000946114dd82610ee3565b91828252888a8216918260001461177a575050600114611720575b5050600c54610140840152600d546101608401528284038201610180840152600e5460009461152682610ee3565b91828252888a821691826000146117025750506001146116a8575b5050828403820190830152600f5460009361155b82610ee3565b9182825287898216918260001461168857505060011461162a575b50506101c0908284030191015260009360105461159281610ee3565b8084529381831691821561160b5750506001146115b1575b5050505090565b9293509060106000527f1b6847dc741a1b0cd08d278845f9d819d87b734759afb55fe2de5cb82a9ae67292846000945b8386106115f757505050500101388080806115aa565b8054858701830152940193859082016115e1565b925093929495505060ff1916848401521515901b0101388080806115aa565b8691929450600f6000527f8d1108e10bcb7c27dddfc02ed9d693a074039d026cf4ea4240b40f7d581ac80290886000925b85841061167257505001019290506101c038611576565b80548385018601528994909301928a910161165b565b60ff191683820152921515871b90910190910193506101c0905038611576565b87929550600e6000527fbb7b4a454dc3493923482f07822329ed19e8244eff582cc204f8554c3620c3fd91896000935b8285106116ec575050500101923880611541565b80548585018701528a95909401938b91016116d8565b60ff191683820152921515881b909101909101945038905080611541565b87929550600b6000527f0175b7a638427703f0dbe7bb9bbf987a2551717b34e79f33b5b1008d1fa01db991896000935b8285106117645750505001019238806114f8565b80548585018701528a95909401938b9101611750565b60ff191683820152921515881b9091019091019450389050806114f8565b8792955060096000527f6e1540171b6c0c960b71a7020d9f60077f6af931a8bbf590da0223dacf75c7af91896000935b8285106117dc5750505001019238806114b8565b80548585018701528a95909401938b91016117c8565b60ff191683820152921515881b9091019091019450389050806114b8565b8792955060076000527fa66cc928b5edb82af9bd49922954155ab7b0942694bea4ce44661d9a8736c68891896000935b828510611854575050500101923880611468565b80548585018701528a95909401938b9101611840565b60ff191683820152921515881b909101909101945038905080611468565b909250836000527f036b6384b5eca791c62761152d0c79bb0604c104a5fb6f4eb0703f3154bb3db085876000925b8484106118cf5750505061020091508201019138611423565b80546102008588010152019101908787916118b6565b929450506102009160ff1916828401521515841b8201019138611423565b1561190a57565b60405162461bcd60e51b815260206004820152601460248201527343616c6c6572206973206e6f74206f7261636c6560601b6044820152606490fd5b6040519061195382610e06565b6009825268185cdcda5cdd185b9d60ba1b6020830152565b600019811461197a5760010190565b634e487b7160e01b600052601160045260246000fd5b919091600090808252602090600182526040808420946119bd82516119b481610e38565b86815282611bde565b15611b1d575060028501805495600381019687549060ff82161115611b0857508488016119f981518551906119f182610e38565b898252611bde565b15611ad0575b505050808601611a1e8151835190611a1682610e38565b878252611bde565b15611a39575050835461ff0019166101001790935550505050565b8395508496611a8492949395606060018060a01b0360045416935192015196611a96875198899687958694634b04236b60e01b8652600486015260606024860152606485019061107a565b8381036003190160448501529061107a565b03925af19081156108bf5750611aab57505050565b813d8311611ac9575b611abe8183610e54565b810103126101fa5750565b503d611ab4565b6001611af492611ade611101565b925188840152611aec611946565b83520161115d565b611afe815461196b565b90553880806119ff565b61ff0019166101001790965550505050505050565b91505060039450611b489250611b31611101565b91611b3a611946565b83528201526001830161115d565b60028101611b56815461196b565b905501805461ff001916610100179055565b67ffffffffffffffff8111610e225760051b60200190565b90611b8a82611b68565b611b976040519182610e54565b8281528092611ba8601f1991611b68565b019060005b828110611bb957505050565b806060602080938501015201611bad565b80518210156111475760209160051b010190565b9060405191602092611c0c848281611bff8183019687815193849201611057565b8101038084520182610e54565b51902091611c2c604051918281611bff8183019687815193849201611057565b519020149056fea26469706673582212204ef1a27a330b6110d8fb177629ecf23dade085c14937b7332204efcead4fa30964736f6c63430008110033290decd9548b62a8d60345a988386fc84ba6bc95484008f6362f93160ef3e5638d1108e10bcb7c27dddfc02ed9d693a074039d026cf4ea4240b40f7d581ac802",
  "devdoc": {
    "kind": "dev",
    "methods": {},
    "version": 1
  },
  "userdoc": {
    "kind": "user",
    "methods": {},
    "version": 1
  },
  "storageLayout": {
    "storage": [
      {
        "astId": 1472,
        "contract": "contracts/SalesmanAgent.sol:SalesmanAgent",
        "label": "prompt",
        "offset": 0,
        "slot": "0",
        "type": "t_string_storage"
      },
      {
        "astId": 1495,
        "contract": "contracts/SalesmanAgent.sol:SalesmanAgent",
        "label": "agentRuns",
        "offset": 0,
        "slot": "1",
        "type": "t_mapping(t_uint256,t_struct(AgentRun)1490_storage)"
      },
      {
        "astId": 1497,
        "contract": "contracts/SalesmanAgent.sol:SalesmanAgent",
        "label": "agentRunCount",
        "offset": 0,
        "slot": "2",
        "type": "t_uint256"
      },
      {
        "astId": 1505,
        "contract": "contracts/SalesmanAgent.sol:SalesmanAgent",
        "label": "owner",
        "offset": 0,
        "slot": "3",
        "type": "t_address"
      },
      {
        "astId": 1507,
        "contract": "contracts/SalesmanAgent.sol:SalesmanAgent",
        "label": "oracleAddress",
        "offset": 0,
        "slot": "4",
        "type": "t_address"
      },
      {
        "astId": 1514,
        "contract": "contracts/SalesmanAgent.sol:SalesmanAgent",
        "label": "config",
        "offset": 0,
        "slot": "5",
        "type": "t_struct(OpenAiRequest)2946_storage"
      }
    ],
    "types": {
      "t_address": {
        "encoding": "inplace",
        "label": "address",
        "numberOfBytes": "20"
      },
      "t_array(t_struct(Message)1477_storage)dyn_storage": {
        "base": "t_struct(Message)1477_storage",
        "encoding": "dynamic_array",
        "label": "struct SalesmanAgent.Message[]",
        "numberOfBytes": "32"
      },
      "t_bool": {
        "encoding": "inplace",
        "label": "bool",
        "numberOfBytes": "1"
      },
      "t_int8": {
        "encoding": "inplace",
        "label": "int8",
        "numberOfBytes": "1"
      },
      "t_mapping(t_uint256,t_struct(AgentRun)1490_storage)": {
        "encoding": "mapping",
        "key": "t_uint256",
        "label": "mapping(uint256 => struct SalesmanAgent.AgentRun)",
        "numberOfBytes": "32",
        "value": "t_struct(AgentRun)1490_storage"
      },
      "t_string_storage": {
        "encoding": "bytes",
        "label": "string",
        "numberOfBytes": "32"
      },
      "t_struct(AgentRun)1490_storage": {
        "encoding": "inplace",
        "label": "struct SalesmanAgent.AgentRun",
        "members": [
          {
            "astId": 1479,
            "contract": "contracts/SalesmanAgent.sol:SalesmanAgent",
            "label": "owner",
            "offset": 0,
            "slot": "0",
            "type": "t_address"
          },
          {
            "astId": 1483,
            "contract": "contracts/SalesmanAgent.sol:SalesmanAgent",
            "label": "messages",
            "offset": 0,
            "slot": "1",
            "type": "t_array(t_struct(Message)1477_storage)dyn_storage"
          },
          {
            "astId": 1485,
            "contract": "contracts/SalesmanAgent.sol:SalesmanAgent",
            "label": "responsesCount",
            "offset": 0,
            "slot": "2",
            "type": "t_uint256"
          },
          {
            "astId": 1487,
            "contract": "contracts/SalesmanAgent.sol:SalesmanAgent",
            "label": "max_iterations",
            "offset": 0,
            "slot": "3",
            "type": "t_uint8"
          },
          {
            "astId": 1489,
            "contract": "contracts/SalesmanAgent.sol:SalesmanAgent",
            "label": "is_finished",
            "offset": 1,
            "slot": "3",
            "type": "t_bool"
          }
        ],
        "numberOfBytes": "128"
      },
      "t_struct(Message)1477_storage": {
        "encoding": "inplace",
        "label": "struct SalesmanAgent.Message",
        "members": [
          {
            "astId": 1474,
            "contract": "contracts/SalesmanAgent.sol:SalesmanAgent",
            "label": "role",
            "offset": 0,
            "slot": "0",
            "type": "t_string_storage"
          },
          {
            "astId": 1476,
            "contract": "contracts/SalesmanAgent.sol:SalesmanAgent",
            "label": "content",
            "offset": 0,
            "slot": "1",
            "type": "t_string_storage"
          }
        ],
        "numberOfBytes": "64"
      },
      "t_struct(OpenAiRequest)2946_storage": {
        "encoding": "inplace",
        "label": "struct IOracle.OpenAiRequest",
        "members": [
          {
            "astId": 2921,
            "contract": "contracts/SalesmanAgent.sol:SalesmanAgent",
            "label": "model",
            "offset": 0,
            "slot": "0",
            "type": "t_string_storage"
          },
          {
            "astId": 2923,
            "contract": "contracts/SalesmanAgent.sol:SalesmanAgent",
            "label": "frequencyPenalty",
            "offset": 0,
            "slot": "1",
            "type": "t_int8"
          },
          {
            "astId": 2925,
            "contract": "contracts/SalesmanAgent.sol:SalesmanAgent",
            "label": "logitBias",
            "offset": 0,
            "slot": "2",
            "type": "t_string_storage"
          },
          {
            "astId": 2927,
            "contract": "contracts/SalesmanAgent.sol:SalesmanAgent",
            "label": "maxTokens",
            "offset": 0,
            "slot": "3",
            "type": "t_uint32"
          },
          {
            "astId": 2929,
            "contract": "contracts/SalesmanAgent.sol:SalesmanAgent",
            "label": "presencePenalty",
            "offset": 4,
            "slot": "3",
            "type": "t_int8"
          },
          {
            "astId": 2931,
            "contract": "contracts/SalesmanAgent.sol:SalesmanAgent",
            "label": "responseFormat",
            "offset": 0,
            "slot": "4",
            "type": "t_string_storage"
          },
          {
            "astId": 2933,
            "contract": "contracts/SalesmanAgent.sol:SalesmanAgent",
            "label": "seed",
            "offset": 0,
            "slot": "5",
            "type": "t_uint256"
          },
          {
            "astId": 2935,
            "contract": "contracts/SalesmanAgent.sol:SalesmanAgent",
            "label": "stop",
            "offset": 0,
            "slot": "6",
            "type": "t_string_storage"
          },
          {
            "astId": 2937,
            "contract": "contracts/SalesmanAgent.sol:SalesmanAgent",
            "label": "temperature",
            "offset": 0,
            "slot": "7",
            "type": "t_uint256"
          },
          {
            "astId": 2939,
            "contract": "contracts/SalesmanAgent.sol:SalesmanAgent",
            "label": "topP",
            "offset": 0,
            "slot": "8",
            "type": "t_uint256"
          },
          {
            "astId": 2941,
            "contract": "contracts/SalesmanAgent.sol:SalesmanAgent",
            "label": "tools",
            "offset": 0,
            "slot": "9",
            "type": "t_string_storage"
          },
          {
            "astId": 2943,
            "contract": "contracts/SalesmanAgent.sol:SalesmanAgent",
            "label": "toolChoice",
            "offset": 0,
            "slot": "10",
            "type": "t_string_storage"
          },
          {
            "astId": 2945,
            "contract": "contracts/SalesmanAgent.sol:SalesmanAgent",
            "label": "user",
            "offset": 0,
            "slot": "11",
            "type": "t_string_storage"
          }
        ],
        "numberOfBytes": "384"
      },
      "t_uint256": {
        "encoding": "inplace",
        "label": "uint256",
        "numberOfBytes": "32"
      },
      "t_uint32": {
        "encoding": "inplace",
        "label": "uint32",
        "numberOfBytes": "4"
      },
      "t_uint8": {
        "encoding": "inplace",
        "label": "uint8",
        "numberOfBytes": "1"
      }
    }
  }
}