{
  "address": "0x11E4Eff5CbEC57e4256218232630073aEEF872BF",
  "abi": [
    {
      "inputs": [
        {
          "internalType": "address",
          "name": "initialOracleAddress",
          "type": "address"
        },
        {
          "internalType": "string",
          "name": "systemPrompt",
          "type": "string"
        }
      ],
      "stateMutability": "nonpayable",
      "type": "constructor"
    },
    {
      "anonymous": false,
      "inputs": [
        {
          "indexed": true,
          "internalType": "address",
          "name": "owner",
          "type": "address"
        },
        {
          "indexed": true,
          "internalType": "uint256",
          "name": "runId",
          "type": "uint256"
        }
      ],
      "name": "AgentRunCreated",
      "type": "event"
    },
    {
      "anonymous": false,
      "inputs": [
        {
          "indexed": true,
          "internalType": "address",
          "name": "newOracleAddress",
          "type": "address"
        }
      ],
      "name": "OracleAddressUpdated",
      "type": "event"
    },
    {
      "inputs": [],
      "name": "RunStubbornNPC",
      "outputs": [
        {
          "internalType": "uint256",
          "name": "i",
          "type": "uint256"
        }
      ],
      "stateMutability": "nonpayable",
      "type": "function"
    },
    {
      "inputs": [
        {
          "internalType": "string",
          "name": "message",
          "type": "string"
        },
        {
          "internalType": "uint256",
          "name": "runId",
          "type": "uint256"
        }
      ],
      "name": "addMessage",
      "outputs": [],
      "stateMutability": "nonpayable",
      "type": "function"
    },
    {
      "inputs": [
        {
          "internalType": "uint256",
          "name": "",
          "type": "uint256"
        }
      ],
      "name": "agentRuns",
      "outputs": [
        {
          "internalType": "address",
          "name": "owner",
          "type": "address"
        },
        {
          "internalType": "uint256",
          "name": "responsesCount",
          "type": "uint256"
        },
        {
          "internalType": "uint8",
          "name": "max_iterations",
          "type": "uint8"
        },
        {
          "internalType": "bool",
          "name": "is_finished",
          "type": "bool"
        }
      ],
      "stateMutability": "view",
      "type": "function"
    },
    {
      "inputs": [
        {
          "internalType": "uint256",
          "name": "agentId",
          "type": "uint256"
        }
      ],
      "name": "getMessageHistoryContents",
      "outputs": [
        {
          "internalType": "string[]",
          "name": "",
          "type": "string[]"
        }
      ],
      "stateMutability": "view",
      "type": "function"
    },
    {
      "inputs": [
        {
          "internalType": "uint256",
          "name": "agentId",
          "type": "uint256"
        }
      ],
      "name": "getMessageHistoryRoles",
      "outputs": [
        {
          "internalType": "string[]",
          "name": "",
          "type": "string[]"
        }
      ],
      "stateMutability": "view",
      "type": "function"
    },
    {
      "inputs": [
        {
          "internalType": "uint256",
          "name": "runId",
          "type": "uint256"
        }
      ],
      "name": "isRunFinished",
      "outputs": [
        {
          "internalType": "bool",
          "name": "",
          "type": "bool"
        }
      ],
      "stateMutability": "view",
      "type": "function"
    },
    {
      "inputs": [
        {
          "internalType": "uint256",
          "name": "runId",
          "type": "uint256"
        },
        {
          "internalType": "string",
          "name": "response",
          "type": "string"
        },
        {
          "internalType": "string",
          "name": "errorMessage",
          "type": "string"
        }
      ],
      "name": "onOracleFunctionResponse",
      "outputs": [],
      "stateMutability": "nonpayable",
      "type": "function"
    },
    {
      "inputs": [
        {
          "internalType": "uint256",
          "name": "runId",
          "type": "uint256"
        },
        {
          "components": [
            {
              "internalType": "string",
              "name": "id",
              "type": "string"
            },
            {
              "internalType": "string",
              "name": "content",
              "type": "string"
            },
            {
              "internalType": "string",
              "name": "functionName",
              "type": "string"
            },
            {
              "internalType": "string",
              "name": "functionArguments",
              "type": "string"
            },
            {
              "internalType": "uint64",
              "name": "created",
              "type": "uint64"
            },
            {
              "internalType": "string",
              "name": "model",
              "type": "string"
            },
            {
              "internalType": "string",
              "name": "systemFingerprint",
              "type": "string"
            },
            {
              "internalType": "string",
              "name": "object",
              "type": "string"
            },
            {
              "internalType": "uint32",
              "name": "completionTokens",
              "type": "uint32"
            },
            {
              "internalType": "uint32",
              "name": "promptTokens",
              "type": "uint32"
            },
            {
              "internalType": "uint32",
              "name": "totalTokens",
              "type": "uint32"
            }
          ],
          "internalType": "struct IOracle.OpenAiResponse",
          "name": "response",
          "type": "tuple"
        },
        {
          "internalType": "string",
          "name": "errorMessage",
          "type": "string"
        }
      ],
      "name": "onOracleOpenAiLlmResponse",
      "outputs": [],
      "stateMutability": "nonpayable",
      "type": "function"
    },
    {
      "inputs": [],
      "name": "oracleAddress",
      "outputs": [
        {
          "internalType": "address",
          "name": "",
          "type": "address"
        }
      ],
      "stateMutability": "view",
      "type": "function"
    },
    {
      "inputs": [],
      "name": "prompt",
      "outputs": [
        {
          "internalType": "string",
          "name": "",
          "type": "string"
        }
      ],
      "stateMutability": "view",
      "type": "function"
    },
    {
      "inputs": [
        {
          "internalType": "string",
          "name": "query",
          "type": "string"
        },
        {
          "internalType": "uint8",
          "name": "max_iterations",
          "type": "uint8"
        }
      ],
      "name": "runAgent",
      "outputs": [
        {
          "internalType": "uint256",
          "name": "i",
          "type": "uint256"
        }
      ],
      "stateMutability": "nonpayable",
      "type": "function"
    },
    {
      "inputs": [
        {
          "internalType": "address",
          "name": "newOracleAddress",
          "type": "address"
        }
      ],
      "name": "setOracleAddress",
      "outputs": [],
      "stateMutability": "nonpayable",
      "type": "function"
    }
  ],
  "transactionHash": "0x76fa54d423c575244caeebc07b53f6ce479334d6cf968bc202d0355178160019",
  "args": [
    "0x4168668812C94a3167FCd41D12014c5498D74d7e",
    "You are a helpful assistant \n"
  ],
  "numDeployments": 1,
  "solcInputHash": "15869aad19b18b222bbd1047b6a4ec48",
  "bytecode": "0x60806040523462000e8b5762002be0803803806200001d8162000ed0565b92833981019060408183031262000e8b5780516001600160a01b038116919082900362000e8b576020810151906001600160401b03821162000e8b570182601f8201121562000e8b578051906001600160401b0382116200080d576200008d601f8301601f191660200162000ed0565b938285526020838301011162000e8b5760005b82811062000e7557505060206000918401015260018060a01b0319338160035416176003556004541617600455805160018060401b0381116200080d57600054600181811c9116801562000e6a575b6020821014620007ec57601f811162000e12575b50602091601f821160011462000d9d5791819260009262000d91575b50508160011b916000199060031b1c1916176000555b6040516101a081016001600160401b038111828210176200080d576040526200015d62000e90565b601381527f6770742d342d747572626f2d707265766965770000000000000000000000000060208201528152601560208201526200019a62000eb0565b6000815260408201526103e8606082015260156080820152620001bc62000e90565b600f81526e7b2274797065223a2274657874227d60881b602082015260a0820152600060c0820152620001ee62000eb0565b6000815260e0820152600a610100820152610120606581830152604051808281011060018060401b0383830111176200080d5781810160405261010081527f5b7b2274797065223a2266756e6374696f6e222c2266756e6374696f6e223a7b60208201527f226e616d65223a22696d6167655f67656e65726174696f6e222c22646573637260408201527f697074696f6e223a2247656e65726174657320616e20696d616765207573696e60608201527f672044616c6c652d32222c22706172616d6574657273223a7b2274797065223a60808201527f226f626a656374222c2270726f70657274696573223a7b2270726f6d7074223a60a08201527f7b2274797065223a22737472696e67222c226465736372697074696f6e223a2260c08201527f44616c6c652d322070726f6d707420746f2067656e657261746520616e20696d60e08201527f616765227d7d2c227265717569726564223a5b2270726f6d7074225d7d7d7d5d6101008201526101408301526200036d62000e90565b60048152636175746f60e01b60208201526101608301526200038e62000eb0565b60008152610180830152815180519092906001600160401b0381116200080d57600554600181811c9116801562000d86575b6020821014620007ec57601f811162000d3c575b506020601f821160011462000ccd578192939460009262000cc1575b50508160011b916000199060031b1c1916176005555b602081015160ff19600654169060ff1617600655604081015191825160018060401b0381116200080d57600754600181811c9116801562000cb6575b6020821014620007ec57601f811162000c50575b506020601f821160011462000be1578192939460009262000bd5575b50508160011b916000199060031b1c1916176007555b63ffffffff60608301511660085490608084015160201b64ff00000000169164ffffffffff1916171760085560a082015191825160018060401b0381116200080d57600954600181811c9116801562000bca575b6020821014620007ec57601f811162000b64575b506020601f821160011462000af5578192939460009262000ae9575b50508160011b916000199060031b1c1916176009555b60c0810151600a5560e081015180519092906001600160401b0381116200080d57600b54600181811c9116801562000ade575b6020821014620007ec57601f811162000a78575b506020601f821160011462000a095781929394600092620009fd575b50508160011b916000199060031b1c191617600b555b610100820151600c55810151600d5561014081015180519091906001600160401b0381116200080d57600e54600181811c91168015620009f2575b6020821014620007ec57601f811162000988575b50602092601f82116001146200091d579281929360009262000911575b50508160011b916000199060031b1c191617600e555b610160810151805191906001600160401b0383116200080d57600f54600181811c9116801562000906575b6020821014620007ec57601f8111620008ad575b50602090601f84116001146200082f5761018093916000918362000823575b50508160011b916000199060031b1c191617600f555b015180516001600160401b0381116200080d57601054600181811c9116801562000802575b6020821014620007ec57601f811162000782575b50602091601f821160011462000718579181926000926200070c575b50508160011b916000199060031b1c1916176010555b604051611ca9908162000ef78239f35b015190503880620006e6565b601f19821692601060005260206000209160005b85811062000769575083600195106200074f575b505050811b01601055620006fc565b015160001960f88460031b161c1916905538808062000740565b919260206001819286850151815501940192016200072c565b60106000527f1b6847dc741a1b0cd08d278845f9d819d87b734759afb55fe2de5cb82a9ae672601f830160051c81019160208410620007e1575b601f0160051c01905b818110620007d45750620006ca565b60008155600101620007c5565b9091508190620007bc565b634e487b7160e01b600052602260045260246000fd5b90607f1690620006b6565b634e487b7160e01b600052604160045260246000fd5b0151905038806200067b565b600f600090815260008051602062002bc0833981519152929190601f198616905b8181106200089457509160019391866101809794106200087a575b505050811b01600f5562000691565b015160001960f88460031b161c191690553880806200086b565b9293602060018192878601518155019501930162000850565b600f60005260008051602062002bc0833981519152601f850160051c81019160208610620008fb575b601f0160051c01905b818110620008ee57506200065c565b60008155600101620008df565b9091508190620008d6565b90607f169062000648565b01519050388062000607565b601f19821693600e60005260206000209160005b8681106200096f575083600195961062000955575b505050811b01600e556200061d565b015160001960f88460031b161c1916905538808062000946565b9192602060018192868501518155019401920162000931565b600e6000527fbb7b4a454dc3493923482f07822329ed19e8244eff582cc204f8554c3620c3fd601f830160051c81019160208410620009e7575b601f0160051c01905b818110620009da5750620005ea565b60008155600101620009cb565b9091508190620009c2565b90607f1690620005d6565b01519050388062000585565b600b60005260206000209060005b601f198416811062000a5f5750600193949583601f1981161062000a45575b505050811b01600b556200059b565b015160001960f88460031b161c1916905538808062000a36565b9091602060018192858a01518155019301910162000a17565b600b6000527f0175b7a638427703f0dbe7bb9bbf987a2551717b34e79f33b5b1008d1fa01db9601f830160051c81016020841062000ad6575b601f830160051c8201811062000ac957505062000569565b6000815560010162000ab1565b508062000ab1565b90607f169062000555565b0151905038806200050c565b600960005260206000209060005b601f198416811062000b4b5750600193949583601f1981161062000b31575b505050811b0160095562000522565b015160001960f88460031b161c1916905538808062000b22565b9091602060018192858a01518155019301910162000b03565b60096000527f6e1540171b6c0c960b71a7020d9f60077f6af931a8bbf590da0223dacf75c7af601f830160051c81016020841062000bc2575b601f830160051c8201811062000bb5575050620004f0565b6000815560010162000b9d565b508062000b9d565b90607f1690620004dc565b01519050388062000472565b600760005260206000209060005b601f198416811062000c375750600193949583601f1981161062000c1d575b505050811b0160075562000488565b015160001960f88460031b161c1916905538808062000c0e565b9091602060018192858a01518155019301910162000bef565b60076000527fa66cc928b5edb82af9bd49922954155ab7b0942694bea4ce44661d9a8736c688601f830160051c81016020841062000cae575b601f830160051c8201811062000ca157505062000456565b6000815560010162000c89565b508062000c89565b90607f169062000442565b015190503880620003f0565b600560005260206000209060005b601f198416811062000d235750600193949583601f1981161062000d09575b505050811b0160055562000406565b015160001960f88460031b161c1916905538808062000cfa565b9091602060018192858a01518155019301910162000cdb565b60056000526020600020601f830160051c81016020841062000d7e575b601f830160051c8201811062000d71575050620003d4565b6000815560010162000d59565b508062000d59565b90607f1690620003c0565b0151905038806200011f565b6000808052601f1983169360008051602062002ba08339815191529290915b85811062000df95750836001951062000ddf575b505050811b0160005562000135565b015160001960f88460031b161c1916905538808062000dd0565b9192602060018192868501518155019401920162000dbc565b6000805260008051602062002ba0833981519152601f830160051c8101916020841062000e5f575b601f0160051c01905b81811062000e52575062000103565b6000815560010162000e43565b909150819062000e3a565b90607f1690620000ef565b80602080928401015182828801015201620000a0565b600080fd5b60408051919082016001600160401b038111838210176200080d57604052565b60405190602082016001600160401b038111838210176200080d57604052565b6040519190601f01601f191682016001600160401b038111838210176200080d5760405256fe608060408181526004908136101561001657600080fd5b600092833560e01c9081632eab9c8114610e16575080634c69c00f14610d725780634cecd88e14610bb45780635839a6061461084b5780637397454d146106d05780637c65d71114610692578063941fac3714610431578063a89ae4ba14610409578063c63b0295146103b2578063daec051f146101fd578063eb17429a146101645763ed6e39e5146100a857600080fd5b34610160576020918260031936011261015c5792919235918281526001938481526100d7858484200154611bc0565b9382865b6100f1575b8451806100ed88826110df565b0390f35b818452868352868585200154811015610157579061014e8261012c6101336101208897968c8b819b200161116b565b50895192838092611001565b0382610e94565b61013d828a611c0a565b526101488189611c0a565b506119ab565b909192936100db565b6100e0565b8380fd5b8280fd5b5091346101fa57602091826003193601126101f6579190913591828152600191828152610195838684200154611bc0565b9382845b6101ab575b8651806100ed88826110df565b8184528483528487852001548110156101f157906101e882866101336101d8889796838d819b200161116b565b5061012c8c518094819301611001565b90919293610199565b61019e565b5080fd5b80fd5b5034610160578060031936011261016057813567ffffffffffffffff811161015c5761022c9036908401610eb6565b926024359260ff84168094036101f65760025482526102df6020956001875284842095336bffffffffffffffffffffffff60a01b885416178755600387019081548660028a015561ffff1916179055610283611141565b85516102928161012c81610f5d565b8882015285516102a181610e46565b600681526573797374656d60d01b8982015281526102c360018801918261119d565b6102cb611141565b91888301526102d86113fe565b825261119d565b600254936001850180861161039f5760025561031d868660018060a01b03948581541690878951809681958294633c38a5f560e01b8452830161141e565b03925af180156103955786949392918891610362575b50505416907f9697c88a6be3b3ed5062f2dcbd719a10914832320686f14e24f7756210a6685e9080a351908152f35b908092939495503d831161038e575b61037b8183610e94565b8101031261016057908492918638610333565b503d610371565b85513d86823e3d90fd5b634e487b7160e01b845260118352602484fd5b509034610160576020366003190112610160578160809360ff9235815260016020522060018060a01b03815416926003600283015492015491815194855260208501528282169084015260081c1615156060820152f35b5090346101605782600319360112610160575490516001600160a01b03909116815260209150f35b5034610160578060031936011261016057813567ffffffffffffffff811161015c576104609036908401610eb6565b91602435908185526001936020948086528487209181830160028401928354600019810190811161067f5790896104988c938561116b565b50918a51928391838301959180546104af81610f23565b95818416918215610660575050600114610623575b50506104d9925003601f198101835282610e94565b51902087518981019068185cdcda5cdd185b9d60ba1b8252600981526104fe81610e46565b519020036105e05792546001600160a01b0393908416330361059f579161053061055a979694928996946102cb611141565b61053a81546119ab565b905581541690878551809781958294633c38a5f560e01b8452830161141e565b03925af1908115610596575061056e578280f35b813d831161058f575b6105818183610e94565b810103126101fa5738808280f35b503d610577565b513d85823e3d90fd5b60648589808a519262461bcd60e51b845283015260248201527f4f6e6c792063686174206f776e65722063616e20616464206d657373616765736044820152fd5b865162461bcd60e51b8152808601899052601f60248201527f4e6f20726573706f6e736520746f2070726576696f7573206d657373616765006044820152606490fd5b8f91908f935082528282205b858310610647575050506104d99282010138806104c4565b819392945080548386890101520192018d91859361062f565b92509350506104d994915060ff191686528015150282010138806104c4565b634e487b7160e01b8b526011875260248bfd5b8382346101f657816003193601126101f65780516100ed916106be826106b781610f5d565b0383610e94565b519182916020835260208301906110ba565b508290346101f65760603660031901126101f65767ffffffffffffffff908335602435838111610847576107079036908701610eb6565b926044358181116108435761071f9036908801610eb6565b9360018060a01b0391610736838954163314611943565b838752602095600187528588209260ff600385015460081c1661080e5786519092888201908111828210176107fb57936107ac8b948a97946107856002958e8d9c9a6107b79e52815282611c1e565b156107f3575b50610794611141565b9061079d6113fe565b8252888201526001830161119d565b0161053a81546119ab565b03925af190811561059657506107cb578280f35b813d83116107ec575b6107de8183610e94565b810103126101fa5781808280f35b503d6107d4565b90508c61078b565b634e487b7160e01b8a5260418b5260248afd5b865162461bcd60e51b8152808b01899052600f60248201526e149d5b881a5cc8199a5b9a5cda1959608a1b6044820152606490fd5b8580fd5b8480fd5b508290346101f657816003193601126101f657805191610200830183811067ffffffffffffffff821117610ba15782526101c183526020937f596f75206172652061204e50432063686172616374657220696e20612067616d858501527f652e20596f7520776572652061207769746e65737320746f2061206d75726465838501527f7220627574206172652072656c756374616e7420746f2064697363757373206960608501527f74206f7220736179207768617420796f75207361772e205461736b3a20596f7560808501527f2077696c6c20616374206c696b6520746865204e50432063686172616374657260a08501527f20415420414c4c2054494d45532e20596f752077696c6c20737065616b20617360c08501527f20616e20756e65647563617465642073747265657420706572736f6e20696e2060e08501527f6f6c64656e2074696d65732e20596f7520617265206e6f742077696c6c696e676101008501527f20746f20676976652075702074686520696e666f726d6174696f6e20796f75206101208501527f686176652061626f757420746865206d757264657220616e642077696c6c206f6101408501527f6e6c7920646f20736f20756e6465722065787472656d652070726573737572656101608501527f206f7220666f72206c6172676520616d6f756e74206f66206d6f6e65792e20596101808501527f6f752077696c6c206e6f7420766f6c756e7465657220696e666f726d6174696f6101a08501527f6e20656173696c792e20596f7520646f6e27742077616e7420746f2074616c6b6101c0850152601760f91b6101e0850152600254825260018552610aec83832094336bffffffffffffffffffffffff60a01b87541617865560038601600181548660028a015561ffff1916179055610283611141565b600254936001850180861161039f57600255610b2a868660018060a01b03948581541690878951809681958294633c38a5f560e01b8452830161141e565b03925af180156103955786949392918891610b6e5750505416907f9697c88a6be3b3ed5062f2dcbd719a10914832320686f14e24f7756210a6685e9080a351908152f35b908092939495503d8311610b9a575b610b878183610e94565b8101031261016057908492918688610333565b503d610b7d565b634e487b7160e01b825260418552602482fd5b5090346101605760031960603682011261015c5760243567ffffffffffffffff93848211610843576101608093833603011261084357805192830183811086821117610d5f57815281840135858111610d5b57610c1690853691850101610eb6565b83526024820135858111610d5b57610c3390853691850101610eb6565b60208401526044820135858111610d5b57610c5390853691850101610eb6565b90830152606481013584811161084357610c7290843691840101610eb6565b60608301526084810135848116810361084357608083015260a481013584811161084357610ca590843691840101610eb6565b60a083015260c481013584811161084357610cc590843691840101610eb6565b60c083015260e481013584811161084357610d1d91610cec61014492863691840101610eb6565b60e0850152610cfe6101048201610f12565b610100850152610d116101248201610f12565b61012085015201610f12565b61014082015260443592831161015c57610d3d610d589336908401610eb6565b91610d5260018060a01b038254163314611943565b356119d0565b80f35b8680fd5b634e487b7160e01b875260418552602487fd5b5090346101605760203660031901126101605780356001600160a01b03818116939184900361084757600354163303610ddd575080546001600160a01b031916821790557f107a9fafffb7ac890f780879e423760c9ffea8dcee8045681f40f542aede2cb88280a280f35b906020606492519162461bcd60e51b8352820152601360248201527221b0b63632b91034b9903737ba1037bbb732b960691b6044820152fd5b9290503461015c57602036600319011261015c573583526001602090815292206003015460081c60ff1615158152f35b6040810190811067ffffffffffffffff821117610e6257604052565b634e487b7160e01b600052604160045260246000fd5b6020810190811067ffffffffffffffff821117610e6257604052565b90601f8019910116810190811067ffffffffffffffff821117610e6257604052565b81601f82011215610f0d5780359067ffffffffffffffff8211610e625760405192610eeb601f8401601f191660200185610e94565b82845260208383010111610f0d57816000926020809301838601378301015290565b600080fd5b359063ffffffff82168203610f0d57565b90600182811c92168015610f53575b6020831014610f3d57565b634e487b7160e01b600052602260045260246000fd5b91607f1691610f32565b9060009160005490610f6e82610f23565b80825291600190818116908115610fe45750600114610f8c57505050565b91929350600080527f290decd9548b62a8d60345a988386fc84ba6bc95484008f6362f93160ef3e563916000925b848410610fcc57505060209250010190565b80546020858501810191909152909301928101610fba565b915050602093945060ff929192191683830152151560051b010190565b906000929180549161101283610f23565b9182825260019384811690816000146110745750600114611034575b50505050565b90919394506000526020928360002092846000945b83861061106057505050500101903880808061102e565b805485870183015294019385908201611049565b9294505050602093945060ff191683830152151560051b0101903880808061102e565b60005b8381106110aa5750506000910152565b818101518382015260200161109a565b906020916110d381518092818552858086019101611097565b601f01601f1916010190565b602080820190808352835180925260408301928160408460051b8301019501936000915b8483106111135750505050505090565b9091929394958480611131600193603f198682030187528a516110ba565b9801930193019194939290611103565b604051906040820182811067ffffffffffffffff821117610e625760405260606020838281520152565b80548210156111875760005260206000209060011b0190600090565b634e487b7160e01b600052603260045260246000fd5b805468010000000000000000811015610e62576111c190600192838201815561116b565b6113e857825180519167ffffffffffffffff92838111610e625784906111e78354610f23565b93601f94858111611397575b5060209085831160011461132e57602094929160009183611323575b5050600019600383901b1c191690831b1781555b019401518051928311610e625761123a8554610f23565b8281116112db575b50602091831160011461127b57928293918392600094611270575b50501b916000199060031b1c1916179055565b01519250388061125d565b90601f198316918560005283826000209360005b878282106112c2575050106112a9575b505050811b019055565b015160001960f88460031b161c1916905538808061129f565b848601518755909501946020948501948793500161128f565b8560005260206000208380860160051c8201926020871061131a575b0160051c019085905b82811061130e575050611242565b60008155018590611300565b925081926112f7565b01519050388061120f565b90601f1983169185600052816000209260005b81811061137f57509185939185602098969410611366575b505050811b018155611223565b015160001960f88460031b161c19169055388080611359565b8284015185558a969094019360209384019301611341565b909192506000848152602081208680860160051c820193602087106113df575b908a9695949392910160051c01915b8281106113d45750506111f3565b8181558995016113c6565b935081936113b7565b634e487b7160e01b600052600060045260246000fd5b6040519061140b82610e46565b60048252633ab9b2b960e11b6020830152565b90815260206040818301526101a091826040820152600060059182549461144486610f23565b806101e0840152600196878116908160001461192557506001146118c8575b5060065460000b6060830152603f1990818385030160808401526000936007549061148d82610f23565b91828252888a821691826000146118aa575050600114611850575b505060085463ffffffff811660a0850152861c60000b60c0840152818385030160e0840152600093600954906114dd82610f23565b91828252888a821691826000146118325750506001146117d8575b5050600a546101008401528284038201610120840152600b5460009461151d82610f23565b91828252888a821691826000146117ba575050600114611760575b5050600c54610140840152600d546101608401528284038201610180840152600e5460009461156682610f23565b91828252888a821691826000146117425750506001146116e8575b5050828403820190830152600f5460009361159b82610f23565b918282528789821691826000146116c857505060011461166a575b50506101c090828403019101526000936010546115d281610f23565b8084529381831691821561164b5750506001146115f1575b5050505090565b9293509060106000527f1b6847dc741a1b0cd08d278845f9d819d87b734759afb55fe2de5cb82a9ae67292846000945b83861061163757505050500101388080806115ea565b805485870183015294019385908201611621565b925093929495505060ff1916848401521515901b0101388080806115ea565b8691929450600f6000527f8d1108e10bcb7c27dddfc02ed9d693a074039d026cf4ea4240b40f7d581ac80290886000925b8584106116b257505001019290506101c0386115b6565b80548385018601528994909301928a910161169b565b60ff191683820152921515871b90910190910193506101c09050386115b6565b87929550600e6000527fbb7b4a454dc3493923482f07822329ed19e8244eff582cc204f8554c3620c3fd91896000935b82851061172c575050500101923880611581565b80548585018701528a95909401938b9101611718565b60ff191683820152921515881b909101909101945038905080611581565b87929550600b6000527f0175b7a638427703f0dbe7bb9bbf987a2551717b34e79f33b5b1008d1fa01db991896000935b8285106117a4575050500101923880611538565b80548585018701528a95909401938b9101611790565b60ff191683820152921515881b909101909101945038905080611538565b8792955060096000527f6e1540171b6c0c960b71a7020d9f60077f6af931a8bbf590da0223dacf75c7af91896000935b82851061181c5750505001019238806114f8565b80548585018701528a95909401938b9101611808565b60ff191683820152921515881b9091019091019450389050806114f8565b8792955060076000527fa66cc928b5edb82af9bd49922954155ab7b0942694bea4ce44661d9a8736c68891896000935b8285106118945750505001019238806114a8565b80548585018701528a95909401938b9101611880565b60ff191683820152921515881b9091019091019450389050806114a8565b909250836000527f036b6384b5eca791c62761152d0c79bb0604c104a5fb6f4eb0703f3154bb3db085876000925b84841061190f5750505061020091508201019138611463565b80546102008588010152019101908787916118f6565b929450506102009160ff1916828401521515841b8201019138611463565b1561194a57565b60405162461bcd60e51b815260206004820152601460248201527343616c6c6572206973206e6f74206f7261636c6560601b6044820152606490fd5b6040519061199382610e46565b6009825268185cdcda5cdd185b9d60ba1b6020830152565b60001981146119ba5760010190565b634e487b7160e01b600052601160045260246000fd5b919091600090808252602090600182526040808420946119fd82516119f481610e78565b86815282611c1e565b15611b5d575060028501805495600381019687549060ff82161115611b485750848801611a398151855190611a3182610e78565b898252611c1e565b15611b10575b505050808601611a5e8151835190611a5682610e78565b878252611c1e565b15611a79575050835461ff0019166101001790935550505050565b8395508496611ac492949395606060018060a01b0360045416935192015196611ad6875198899687958694634b04236b60e01b865260048601526060602486015260648501906110ba565b838103600319016044850152906110ba565b03925af19081156105965750611aeb57505050565b813d8311611b09575b611afe8183610e94565b810103126101fa5750565b503d611af4565b6001611b3492611b1e611141565b925188840152611b2c611986565b83520161119d565b611b3e81546119ab565b9055388080611a3f565b61ff0019166101001790965550505050505050565b91505060039450611b889250611b71611141565b91611b7a611986565b83528201526001830161119d565b60028101611b9681546119ab565b905501805461ff001916610100179055565b67ffffffffffffffff8111610e625760051b60200190565b90611bca82611ba8565b611bd76040519182610e94565b8281528092611be8601f1991611ba8565b019060005b828110611bf957505050565b806060602080938501015201611bed565b80518210156111875760209160051b010190565b9060405191602092611c4c848281611c3f8183019687815193849201611097565b8101038084520182610e94565b51902091611c6c604051918281611c3f8183019687815193849201611097565b519020149056fea2646970667358221220f245cdcf006fa9ee31f3470e26f74633eea8f2816d9ba20ab49f86e3d93c684864736f6c63430008110033290decd9548b62a8d60345a988386fc84ba6bc95484008f6362f93160ef3e5638d1108e10bcb7c27dddfc02ed9d693a074039d026cf4ea4240b40f7d581ac802",
  "devdoc": {
    "kind": "dev",
    "methods": {},
    "version": 1
  },
  "userdoc": {
    "kind": "user",
    "methods": {},
    "version": 1
  },
  "storageLayout": {
    "storage": [
      {
        "astId": 2191,
        "contract": "contracts/StubbornAgent.sol:StubbornAgent",
        "label": "prompt",
        "offset": 0,
        "slot": "0",
        "type": "t_string_storage"
      },
      {
        "astId": 2214,
        "contract": "contracts/StubbornAgent.sol:StubbornAgent",
        "label": "agentRuns",
        "offset": 0,
        "slot": "1",
        "type": "t_mapping(t_uint256,t_struct(AgentRun)2209_storage)"
      },
      {
        "astId": 2216,
        "contract": "contracts/StubbornAgent.sol:StubbornAgent",
        "label": "agentRunCount",
        "offset": 0,
        "slot": "2",
        "type": "t_uint256"
      },
      {
        "astId": 2224,
        "contract": "contracts/StubbornAgent.sol:StubbornAgent",
        "label": "owner",
        "offset": 0,
        "slot": "3",
        "type": "t_address"
      },
      {
        "astId": 2226,
        "contract": "contracts/StubbornAgent.sol:StubbornAgent",
        "label": "oracleAddress",
        "offset": 0,
        "slot": "4",
        "type": "t_address"
      },
      {
        "astId": 2233,
        "contract": "contracts/StubbornAgent.sol:StubbornAgent",
        "label": "config",
        "offset": 0,
        "slot": "5",
        "type": "t_struct(OpenAiRequest)2946_storage"
      }
    ],
    "types": {
      "t_address": {
        "encoding": "inplace",
        "label": "address",
        "numberOfBytes": "20"
      },
      "t_array(t_struct(Message)2196_storage)dyn_storage": {
        "base": "t_struct(Message)2196_storage",
        "encoding": "dynamic_array",
        "label": "struct StubbornAgent.Message[]",
        "numberOfBytes": "32"
      },
      "t_bool": {
        "encoding": "inplace",
        "label": "bool",
        "numberOfBytes": "1"
      },
      "t_int8": {
        "encoding": "inplace",
        "label": "int8",
        "numberOfBytes": "1"
      },
      "t_mapping(t_uint256,t_struct(AgentRun)2209_storage)": {
        "encoding": "mapping",
        "key": "t_uint256",
        "label": "mapping(uint256 => struct StubbornAgent.AgentRun)",
        "numberOfBytes": "32",
        "value": "t_struct(AgentRun)2209_storage"
      },
      "t_string_storage": {
        "encoding": "bytes",
        "label": "string",
        "numberOfBytes": "32"
      },
      "t_struct(AgentRun)2209_storage": {
        "encoding": "inplace",
        "label": "struct StubbornAgent.AgentRun",
        "members": [
          {
            "astId": 2198,
            "contract": "contracts/StubbornAgent.sol:StubbornAgent",
            "label": "owner",
            "offset": 0,
            "slot": "0",
            "type": "t_address"
          },
          {
            "astId": 2202,
            "contract": "contracts/StubbornAgent.sol:StubbornAgent",
            "label": "messages",
            "offset": 0,
            "slot": "1",
            "type": "t_array(t_struct(Message)2196_storage)dyn_storage"
          },
          {
            "astId": 2204,
            "contract": "contracts/StubbornAgent.sol:StubbornAgent",
            "label": "responsesCount",
            "offset": 0,
            "slot": "2",
            "type": "t_uint256"
          },
          {
            "astId": 2206,
            "contract": "contracts/StubbornAgent.sol:StubbornAgent",
            "label": "max_iterations",
            "offset": 0,
            "slot": "3",
            "type": "t_uint8"
          },
          {
            "astId": 2208,
            "contract": "contracts/StubbornAgent.sol:StubbornAgent",
            "label": "is_finished",
            "offset": 1,
            "slot": "3",
            "type": "t_bool"
          }
        ],
        "numberOfBytes": "128"
      },
      "t_struct(Message)2196_storage": {
        "encoding": "inplace",
        "label": "struct StubbornAgent.Message",
        "members": [
          {
            "astId": 2193,
            "contract": "contracts/StubbornAgent.sol:StubbornAgent",
            "label": "role",
            "offset": 0,
            "slot": "0",
            "type": "t_string_storage"
          },
          {
            "astId": 2195,
            "contract": "contracts/StubbornAgent.sol:StubbornAgent",
            "label": "content",
            "offset": 0,
            "slot": "1",
            "type": "t_string_storage"
          }
        ],
        "numberOfBytes": "64"
      },
      "t_struct(OpenAiRequest)2946_storage": {
        "encoding": "inplace",
        "label": "struct IOracle.OpenAiRequest",
        "members": [
          {
            "astId": 2921,
            "contract": "contracts/StubbornAgent.sol:StubbornAgent",
            "label": "model",
            "offset": 0,
            "slot": "0",
            "type": "t_string_storage"
          },
          {
            "astId": 2923,
            "contract": "contracts/StubbornAgent.sol:StubbornAgent",
            "label": "frequencyPenalty",
            "offset": 0,
            "slot": "1",
            "type": "t_int8"
          },
          {
            "astId": 2925,
            "contract": "contracts/StubbornAgent.sol:StubbornAgent",
            "label": "logitBias",
            "offset": 0,
            "slot": "2",
            "type": "t_string_storage"
          },
          {
            "astId": 2927,
            "contract": "contracts/StubbornAgent.sol:StubbornAgent",
            "label": "maxTokens",
            "offset": 0,
            "slot": "3",
            "type": "t_uint32"
          },
          {
            "astId": 2929,
            "contract": "contracts/StubbornAgent.sol:StubbornAgent",
            "label": "presencePenalty",
            "offset": 4,
            "slot": "3",
            "type": "t_int8"
          },
          {
            "astId": 2931,
            "contract": "contracts/StubbornAgent.sol:StubbornAgent",
            "label": "responseFormat",
            "offset": 0,
            "slot": "4",
            "type": "t_string_storage"
          },
          {
            "astId": 2933,
            "contract": "contracts/StubbornAgent.sol:StubbornAgent",
            "label": "seed",
            "offset": 0,
            "slot": "5",
            "type": "t_uint256"
          },
          {
            "astId": 2935,
            "contract": "contracts/StubbornAgent.sol:StubbornAgent",
            "label": "stop",
            "offset": 0,
            "slot": "6",
            "type": "t_string_storage"
          },
          {
            "astId": 2937,
            "contract": "contracts/StubbornAgent.sol:StubbornAgent",
            "label": "temperature",
            "offset": 0,
            "slot": "7",
            "type": "t_uint256"
          },
          {
            "astId": 2939,
            "contract": "contracts/StubbornAgent.sol:StubbornAgent",
            "label": "topP",
            "offset": 0,
            "slot": "8",
            "type": "t_uint256"
          },
          {
            "astId": 2941,
            "contract": "contracts/StubbornAgent.sol:StubbornAgent",
            "label": "tools",
            "offset": 0,
            "slot": "9",
            "type": "t_string_storage"
          },
          {
            "astId": 2943,
            "contract": "contracts/StubbornAgent.sol:StubbornAgent",
            "label": "toolChoice",
            "offset": 0,
            "slot": "10",
            "type": "t_string_storage"
          },
          {
            "astId": 2945,
            "contract": "contracts/StubbornAgent.sol:StubbornAgent",
            "label": "user",
            "offset": 0,
            "slot": "11",
            "type": "t_string_storage"
          }
        ],
        "numberOfBytes": "384"
      },
      "t_uint256": {
        "encoding": "inplace",
        "label": "uint256",
        "numberOfBytes": "32"
      },
      "t_uint32": {
        "encoding": "inplace",
        "label": "uint32",
        "numberOfBytes": "4"
      },
      "t_uint8": {
        "encoding": "inplace",
        "label": "uint8",
        "numberOfBytes": "1"
      }
    }
  }
}